:100000000C945E000C94671A0C94711A0C947B1A71
:100010000C94851A0C948F1A0C94991A0C94A31AA8
:100020000C94DE1A0C947D000C947D000C940C1939
:100030000C9467180C94F6180C944A1A0C94FA173E
:100040000C943F180C94E81A0C947D000C947D00DD
:100050000C947D000C947D000C947D000C947D002C
:100060000C9401190C947D000C947D000C947D007F
:100070000C947D000C947D000C947D000C947D000C
:100080000C947D000C947D000C947D00E50E2A0FED
:100090002E0F780F7B0F800FB20FAE10C810DD103F
:1000A00040136913C413ED1319141915491571156B
:1000B0008A15B315D71500081C18141011241FBE7B
:1000C000CFEFD0E1DEBFCDBF11E0A0E0B1E0E4E3CF
:1000D000FAE300E00BBF02C007900D92AE31B1070A
:1000E000D9F714E0AEE1B1E001C01D92A139B1072A
:1000F000E1F70E940E160C94181D0C940000D89A7B
:100100000895D99A0895DA9A08955F926F927F922E
:100110008F929F92AF92BF92CF92DF92EF92FF9217
:100120000F931F935FB6F894A090B501B090B601FD
:10013000C090B701D090B8019501A60160E070E0D1
:1001400080E090E0FEE4AF2EE3E8BE2ECC24DD2478
:10015000EE24FF2400E010E00E944D1B39014A010B
:1001600000E20E94171C59016A01A40193015695EF
:100170004795379527952A0D3B1D4C1D5D1D57FF53
:1001800005C05F772F5F3F4F4F4F5F4F2093B50103
:100190003093B6014093B7015093B8015FBEC901D7
:1001A0001F910F91FF90EF90DF90CF90BF90AF9095
:1001B0009F908F907F906F905F90089586B708957D
:1001C000362F272FFC014383528361837083BA014A
:1001D000832F922F0895FC01918180E0208130E0EF
:1001E000282B392BC90108959FB7F89480932004D8
:1001F0009FBF0895282F9FB7F89481E03091200485
:10020000321380E09FBF089580910501882339F45F
:1002100081E090912301923019F080E0089580E010
:100220000895C0980895B89A08958FB7F8941092D9
:100230001F048FBF08959FB7F89481E020911F0499
:10024000211180E09FBF0895FC01218130E0908161
:1002500080E0282B392BC90108959FB7F8948BB300
:1002600021E082278BBB9FBF08959FB7F8948BB383
:1002700022E082278BBB9FBF0895882311F06E9ADE
:1002800008956E980895C09A089587B78F7E87BFA6
:1002900008954FB7F89420914502309146028CB5ED
:1002A0009DB556B752FF04C02F5F3F4F8CB59DB52B
:1002B0004FBF40E050E0A90133272227A0E0B0E083
:1002C000282B392B4A2B5B2BB901CA010895DE9AE2
:1002D0000895DE98089589B78F7B89BF089587B701
:1002E0008F7D87BF0895809182048F3F89F0282FEA
:1002F00030E0F901E057FE4F9081909382049F3FD8
:1003000011F490938F0420573E4F9FEFF901908393
:10031000089583B783BF00B600FCFDCF0895FC01AC
:10032000238130E040E050E0808190E0A0E0B0E048
:10033000B82FAA2799278827282B392B4A2B5B2BE4
:10034000618170E080E090E0CB0177276627262B63
:10035000372B482B592B828190E0A0E0B0E0BA2FD8
:10036000A92F982F8827282B392B4A2B5B2BB901D3
:10037000CA01089581E0849B80E00895882311F0EC
:100380006F9A08956F98089580913201882311F42F
:100390000E9435018091320190E0019665E070E0A5
:1003A0000E94A81C80933201089580913401882313
:1003B00039F49FB7F8948BB324E082278BBB9FBF9F
:1003C0001092340108959FB7F894E82FF0E0E057B9
:1003D000FE4F20812F3F49F421E030E040918F040F
:1003E000481729F020E030E002C021E030E021157C
:1003F000310589F4209182042F3F19F480938204FF
:1004000006C0E0918F04F0E0E057FE4F80838093B8
:100410008F0480E001C085E09FBF08958FE00E94B7
:10042000E301089581E10E94E30108958EE00E94B6
:10043000E30108958DE00E94E30108950F931F9357
:100440001FB7F89402B70E94DE002091440130915A
:100450004501409146015091470181FF0FC091B77E
:1004600082B72F5F3F4F4F4F5F4F290F311D411D07
:10047000511D280F311D411D511D04C0200F311D7C
:10048000411D511D1FBFB901CA011F910F91089550
:10049000DF92EF92FF920F931F93D82E7A018B0178
:1004A0000E941E024D2D50E09A01E3E0220F331FFF
:1004B000EA95E1F7240F351FF901E95BFD4F6083F1
:1004C000718382839383E482F58206831783F90123
:1004D000E15BFD4F8081836080838BE00E94E301BC
:1004E0001F910F91FF90EF90DF900895AB01BC0139
:1004F00083E00E944802089550918B0440912504A6
:10050000242F30E0852F90E0451710F42C593F4FF1
:10051000281B390BC901089580E00E943D01BA9A59
:10052000BB98B99A6C9A80E00E94BE01709A6B9851
:100530006A98689881E00E943D0108951F93182FE2
:1005400081E00E943D011FB9779BFECF8FB11F91C3
:100550000895EF92FF920F931F93182F062FE72E07
:10056000FFB6F8940E941B01882319F0FFBE80E0BB
:100570000AC0FFBE812F0E949E028E2D0E949E0205
:10058000802F0E949E021F910F91FF90EF9008957F
:10059000CF92DF92EF92FF920F931F93CF93DF934F
:1005A0004FB7F8940091890410918A04E090870273
:1005B000F0908802C0910502D0910602209141017D
:1005C00030914201CE010A962817390708F4C90173
:1005D0004FBF6C010894C108D10813C00115110563
:1005E00029F0F801EC0FFD1F808101C080E00E941E
:1005F0009E02E114F10421F0F701EC0FFD1F80834E
:100600002196CC15DD0550F381E00E94BE018FB725
:10061000F8940115110531F0F801EC0FFD1F9081E0
:100620009FB901C01FB8D0930602C09305028FBFC7
:1006300080E0DF91CF911F910F91FF90EF90DF90BD
:10064000CF9008952FB7F894509342014093410101
:1006500090938A0480938904709388026093870240
:1006600010920602109205022FBF4115510521F08C
:100670008FB10E94C802089587E00E94E30180E0E4
:1006800008950F931F93CF93DF93EC01062F1FB7AD
:10069000F8940E941B01882319F01FBF10E012C0BC
:1006A0001FBF8FE790E09093FC018093FB018FE7E1
:1006B0000E949E02182F80E090E0BE01402F50E083
:1006C0000E942203812FDF91CF911F910F910895F6
:1006D0000F931F93CF93DF93C091B301D091B401D7
:1006E0001AA5112309F41FE10E9411018091A901AB
:1006F000811739F0612F70E0606E706885E10E94AB
:10070000A9021093A90108811FB7F8940E941B0148
:10071000882311F01FBF12C01FBF8EE390E090939B
:10072000FC018093FB018EE30E949E02402F41500A
:10073000CE0160E070E050E00E942203DF91CF9193
:100740001F910F9108958FB7F894109221048FBFD5
:100750000895262F21502F3120F460930402FC01CC
:1007600062A70895FC01668377830895CF92DF9294
:10077000EF92FF920F931F931FB7F89401B7C2B681
:100780000E94DE000C1511F081FF02C01FBF6BC07C
:10079000809103028823D1F10E941E0220911B0444
:1007A00030911C0440911D0450911E04C0905601CC
:1007B000D0905701E0905801F0905901621B730BE3
:1007C000840B950B6C157D058E059F0528F0109206
:1007D000030286EE61E01EC0D701C601820F931F9F
:1007E000A41FB51F2091440130914501409146015D
:1007F00050914701821B930BA40BB50B873E9105CB
:10080000A105B10518F4823020F402C086EE01C0C3
:1008100082E060E0782F715000B601FCFDCF92B706
:10082000791709F4782F8091440190914501A091A6
:100830004601B09147019C01AD012F5F3F4F4F4FE3
:100840005F4F270F311D411D511D281739074A07DA
:100850005B0710F4782F709571BF1FBF662319F0E6
:100860008AE00E94E3011F910F91FF90EF90DF90CB
:10087000CF9008950F932093290430932A04409336
:100880002B0450932C040093A801EFB7F894F1E0E7
:10089000F093030260931B0470931C0480931D0467
:1008A00090931E04209356013093570140935801B2
:1008B00050935901EFBF0E94B6030F910895DF9244
:1008C000EF92FF920F931F93D82E7A018B010E9413
:1008D0001E024D2D50E09A01F3E0220F331FFA95CE
:1008E000E1F7240F351FF901E95BFD4F6083718348
:1008F00082839383E482F58206831783F901E15BA7
:10090000FD4F80818E7F826080838BE00E94E301B7
:100910001F910F91FF90EF90DF90089590E0880F66
:10092000991F90933801809337010E9483000E94A1
:1009300081000E947F0084E044EF51E060E070E0BD
:100940000E945F040895809161028D7F809361020F
:1009500080916A028D7F80936A02E8E5F2E08081EF
:100960008D7F8083809173028D7F8093730280914D
:1009700085028D7F80938502109236011092350199
:10098000109238011092370110923C0110928B04A2
:10099000109225041092890281E0809386020E94C1
:1009A00083000E9481000E947F000895809133019E
:1009B000882311F40E942D018091330190E001966B
:1009C00064E170E00E94A81C809333010895809137
:1009D0002201882309F052C0809102018F3F09F063
:1009E0004DC00E941B01882309F448C081E0809318
:1009F000270480918F01882311F0109227048091A1
:100A000027048823E9F10E940401882311F00E9441
:100A1000430180912301823049F5809105018823AB
:100A200029F5209103012F3FE9F08FEF8093050115
:100A3000822F90E0FC01E254FE4F3081309303019D
:100A40003F3F11F43093040182549E4F3FEFFC016D
:100A500030832093AC0181E08093230188E00E94E1
:100A6000E30104C02093050110922301809123012A
:100A7000882341F40E943D0180E0089581E00895BB
:100A800085E0089580E008951F931FB7F894909132
:100A90000201981719F01FBF81E033C08FEF8093D8
:100AA0000201E0912201EE2329F080E0F5E02E2FF3
:100AB00030E005C00E9415010E94E7041CC06F2FA2
:100AC0000E94881CA901092E02C0559547950A94D9
:100AD000E2F740FF13C09093020121E030E002C032
:100AE000220F331F9A95E2F720952E23209322019F
:100AF00086E00E94E3011FBF80E003C0892F8F5F63
:100B0000DECF1F91089584E00E944405089583E09C
:100B10000E94440580E008950E94110180913F01E8
:100B20009091400161E00E944103089580E8809324
:100B30005A011092AF011092850410928104109214
:100B4000AB0108950F931F93082F1FB7F8940E94CD
:100B50001B01882319F01FBF80E004C01FBF802F36
:100B60000E949E021F910F91089589E00E94A205A4
:100B70000895FC0115A68E9640E050E060E070E814
:100B80000E94E0000895EF92FF920F931F930E943E
:100B900049017B018C012091BF013091C00140913E
:100BA000C1015091C2018091BA019091BB01A09105
:100BB000BC01B091BD01820F931FA41FB51FE216A7
:100BC000F3060407150730F082179307A407B5074B
:100BD00058F005C082179307A407B50790F5E816EB
:100BE000F9060A071B0768F59C01AD012E193F099C
:100BF000400B510B213060E8360760E0460760E0AB
:100C0000560718F1D801C70180509048AF4FBF4F29
:100C10008093BF019093C001A093C101B093C20122
:100C200020503048404050402093BA013093BB01DF
:100C30004093BC015093BD0120E030E840E050E01B
:100C400014C020E030E040E050E08093BF0190937A
:100C5000C001A093C101B093C2011092BA011092D9
:100C6000BB011092BC011092BD018CB59DB50396DD
:100C7000AC014E195F094217530718F4C9018E0DD4
:100C80009F1D009711F481E090E001979BBD8ABD04
:100C900080E186BF87B7806187BF1F910F91FF906A
:100CA000EF900895DF92EF92FF920F931F937B01D5
:100CB0008C010E944901DFB6F8946093BF017093E4
:100CC000C0018093C1019093C201E092BA01F092F9
:100CD000BB010093BC011093BD010E94C305DFBEA0
:100CE0001F910F91FF90EF90DF9008951F931FB712
:100CF000F8940E94850066E470E00E94941C0B96B4
:100D000090938D0480938C04BC0180E090E00E945D
:100D100052061FBF1F9108958FB7F8946091260463
:100D20008FBF85E0689FB0011124625D7E4F7064C3
:100D300088E10E94A90208951F931FB7F89480913B
:100D4000AA01882331F061E070E080918804882353
:100D500011F460E070E0762F6627770F770F770F3A
:100D60008091B201882331F081E090E02091240449
:100D7000222311F480E090E0626E7262B4E0880F8A
:100D8000991FBA95E1F7682B792B81E10E94A9029E
:100D90001FBF1F910895DF93CF930F92CDB7DEB79A
:100DA00089830E946F0190E296BF8981882319F0A0
:100DB0008EB5806402C08EB58F7B8EBD87B7806292
:100DC00087BF80E00F90CF91DF91089581E00E946E
:100DD000CB0608959FB7F89480931E019FBF82E0D1
:100DE0000E94E30108951F93182F21E030E0309313
:100DF00025012093240110928F010E94E704812F86
:100E00000E94EA061F9108950F931F931FB7F8944D
:100E100080912401909125018830910589F40E94E8
:100E2000B5050E9487050E94430181E090E0909300
:100E300025018093240183E00E94EA061FBF2FC092
:100E40000E94110180919004882311F085E001C077
:100E500084E00E94A20583FD05C080E00E94A205F7
:100E600083FD04C001E083E090E003C000E085E082
:100E700090E090932501809324010E9443011FBFBD
:100E8000002339F0109243010E9487050E947606E4
:100E900006C060E471E080E090E00E9452061F917D
:100EA0000F9108950F931F93823041F1833030F4F6
:100EB000882359F0813009F0CAC00FC0833009F48B
:100EC000A6C0843009F0C3C0C0C010922B016623B5
:100ED00009F0B8C00E94C401BAC010922B01662369
:100EE00009F0B0C00E94C40180912E0190912F01A1
:100EF000019690932F0180932E01A9C010922B018F
:100F0000662369F50E94C401809158028D7F809309
:100F100058021FB7F894F0912504E0910C018091DC
:100F20008B0440E024E630E006C090E00196B90171
:100F30000E94A81C4F5F8F1711F04E17B0F38093DB
:100F40008B041092860280911601882331F00E9452
:100F5000850083708F5F80930C011FBF20C00E94AB
:100F6000D50110911A010E948500AC01812F65E026
:100F70000E94881C212F30E0280F311D80911A011A
:100F800063E00E94881C682FCA0170E00E94941CD4
:100F9000281B390BB90180E090E00E947602109185
:100FA0001801133009F053C000913901013009F0E4
:100FB0004EC00E947C02009759F4109239011092A1
:100FC0008B041092250410928902009386023FC080
:100FD00000911A010E948500AC01802F65E00E94FB
:100FE000881C202F30E0280F311D80911A01612FBD
:100FF0000E94881C682FCA0170E00E94941C281B64
:10100000390BB90180E090E00E94760220C0109276
:101010002B016623B9F40E94C401809158028D7F90
:10102000809358022FB7F89480918B0490E001963A
:1010300064E670E00E94A81C80938B0410928602E4
:101040002FBF05C00E94D50102C010922B011F9135
:101050000F910895CF92DF92EF92FF920F931F931B
:10106000DF93CF930F92CDB7DEB76C01142FF52E1F
:101070000FB7F89469830E941B016981882319F0D6
:101080000FBF00E019C00FBFC60ED11C8C2D8068A9
:101090000E949E02082FC60196958795807C0E942B
:1010A0009E02412F5F2D6A0114E0F60181916F01CC
:1010B0000E949E021150C9F7802F0F90CF91DF91AF
:1010C0001F910F91FF90EF90DF90CF900895DF93E5
:1010D000CF9300D000D0CDB7DEB78FB7F894209172
:1010E000B0019091B101AE014F5F5F4F2983FA01CA
:1010F00091832091F7019091F8012B839C838FBFFE
:1011000088E691E060E00E942A080F900F900F900F
:101110000F90CF91DF9108959FB7F894E82FF0E0FA
:10112000E15EFB4F8081882321F481E0808380E0B1
:1011300001C081E09FBF08950F931F93182F0FB731
:10114000F89480E00E948C088823E1F51093020156
:101150000E940401882311F086E010C080912301D1
:10116000882311F40E948C0280912301882349F482
:1011700081E0809323011092AC0188E00E94E3019A
:101180002DC08091BE018F3F49F481E090E0209115
:101190000401222329F080E090E002C081E090E089
:1011A0000097E1F4809103018F3F19F4109203013D
:1011B00006C0E0910401F0E0E254FE4F108210926C
:1011C00004010CC021E030E002C0220F331F1A9549
:1011D000E2F780912201822B809322010FBF80E0F1
:1011E0001F910F9108951F931FB7F89480918E045B
:1011F000882319F01FBF81E013C081E080938E0423
:1012000080911F01909120018430910521F481E0AB
:101210000E949C0803C084E00E94E3011FBF80E09D
:101220001F9108958FB7F8941092B2018FBF8FB7B6
:10123000F894109224048FBF0E94F3080895CF926F
:10124000DF92EF92FF920F931F93CF93DF93EC0106
:10125000E62ED72E2C30C9F5483009F0BFC0062F36
:10126000172F10922B01809161028D7F8093610274
:101270000E94D604C8010E9424018093D00190935B
:10128000CF01F801828180930F01C80106960E9468
:1012900024019093120180931101C80104960E94C9
:1012A0002401909336018093350110922F01109202
:1012B0002E010E941209409111015091120160E02B
:1012C00070E082E00E945F048BC02D3009F086C080
:1012D000443009F083C080912B01882309F080C03D
:1012E0000E94D6040E941209FFB6F89480918602EB
:1012F000882309F06DC0C09025040C2D10E0CE01AC
:1013000008960E94EB00000F111F000F111FF8013B
:10131000E657FD4F80838E2D9D2D0E942401F801FC
:10132000E557FD4F808328A5822F992787FD90954B
:10133000F801E457FD4F218390838C2D8F5F8093BC
:101340002504843610F01092250490912504809194
:101350008B04981719F481E08093860210922A0179
:1013600081E048EE53E060E070E00E944802809126
:101370008902882329F40E94160281E08093890261
:101380000E947C0220911801233021F520913A011E
:1013900030913B0182179307E8F081E08093390197
:1013A00010922102109223021092220281E1809376
:1013B0001D028FEF9FEF90930E0180930D010E940D
:1013C00012026FE070E080E090E00E94760202C0BE
:1013D0000E94D501FFBE0E94160202C00E94D501E4
:1013E000CE01DF91CF911F910F91FF90EF90DF9091
:1013F000CF9008956F927F928F929F92AF92BF92FB
:10140000CF92DF92EF92FF920F931F93CF93DF93D0
:101410004B015C01C7E4D2E060E070E0762EFB0196
:1014200053E0EE0FFF1F5A95E1F7E60FF71F47E471
:10143000C42E42E0D42ECE0EDF1ED60118966C903C
:10144000189761FEA3C0E880F9800A811B818C8116
:101450009D81AE81BF81A50194012E193F09400BEA
:10146000510B281739074A075B0708F48FC060FE45
:1014700006C0E15BFD4F80818D7F808309C08E0DAA
:101480009F1DA01FB11FF60180839183A283B383A8
:10149000F72DF33009F44BC0F43030F4F13061F043
:1014A000F23009F07AC029C0872D843009F442C097
:1014B000853009F072C058C070922A0180911801DD
:1014C0008330A9F580913901882399F4709239010C
:1014D00010922102109223021092220281E1809345
:1014E0001D028FEF9FEF90930E0180930D010E94DC
:1014F000120281E0809339011AC0809135019091E8
:101500003601009739F020912E0130912F0182177A
:10151000930718F00E941A0240C0809161028D7FEB
:101520008093610210922F0110922E012CC00E9414
:10153000160233C08091370190913801009731F441
:10154000809173028D7F8093730227C00E943501C2
:101550000E942D018091370190913801019790935D
:1015600038018093370119C080912B01882359F4E9
:1015700080918602882339F481E080932B0182E0F8
:101580000E949C080AC00E94D50107C06F5F7F4F70
:1015900029966730710509F041CF8BE00E94E30185
:1015A000DF91CF911F910F91FF90EF90DF90CF903F
:1015B000BF90AF909F908F907F906F9008950F9302
:1015C0001F93082F1FB7F89480E00E948C0888238F
:1015D00019F01FBF85E01BC00E940401882379F425
:1015E00080912301882379F482E080932301109273
:1015F00005010E948C020E9413010E9411010093B8
:10160000020180E003C00E94150181E01FBF1F910D
:101610000F91089582E090E09093A6018093A50138
:1016200081E08093AF0180910201843029F084E051
:101630000E94DF0A882319F40E948C05089584E033
:101640000E949C0808951F931FB7F8948091A501EC
:101650009091A6010097D1F01092AF018091AB015B
:10166000882311F0B79904C00E9908C0882319F097
:1016700081508093AB010E940A0B0AC081E090E088
:101680009093A6018093A5011092AB010E9483055F
:101690001FBF1F9108950E9496050E9443010E945A
:1016A000110188E00E94A20588E00E94A2050E9424
:1016B00043010E9483050E94230B0895EF92FF923D
:1016C0000F931F93CF93DF938C018091FB0186FFD3
:1016D00051C18F7B8F3309F090C1C0913F01D091F0
:1016E000400148814093A7018091A5019091A601F6
:1016F0008530910509F444C08630910509F492C003
:101700008230910509F02FC185E090E09093A60109
:101710008093A50150915A01242F30E0852F90E04D
:101720002817390754F5B79907C00E9905C0842FBB
:101730008095850F80935A014A32F8F44423B1F022
:10174000BE016F5F7F4F483028F080E090E047E0B7
:1017500050E009C086E090E09093A6018093A50137
:1017600080E090E050E00E94220347C11092AF0158
:101770000E9443010E948305F3C00E944B0B3DC1B0
:1017800086E090E09093A6018093A5018091B2013C
:10179000882309F440C0809124048823E1F58E0158
:1017A0000F5F1F4FC8010E94EB0085FF34C076E039
:1017B000E72EF12CEC0EFD1EC7010E94EB004FB787
:1017C000F8942091F7013091F8014FBF82179307E9
:1017D00039F0C7010E94EB002FEF8F3F9207D9F439
:1017E000C8010E94EB00877090708130910599F4D8
:1017F0000E9443010E9411018AE00E94A2050E94FA
:1018000043010E9411016091A7016750CE01089623
:101810000E944103F2C0BE01685F7F4F4091A70163
:1018200047509ECF0E9443018091AB01882311F461
:101830000E9483058091AB01882311F0B7990AC0FB
:101840000E9B08C080918104882321F09091A7010C
:101850009B3038F480913F01909140010E94B9057E
:101860002FC08130A1F480913F0190914001E0911F
:101870008504F0E0EE0FFF1FEE0FFF1FE35DFB4F4F
:1018800040815181628173818E960E94E000809137
:10189000850490E001968770907080938504809114
:1018A0008104815080938104882351F080913F010D
:1018B000909140010E94B905109285041092810414
:1018C0008091A701FE01E80FF11D808187FF48C0CC
:1018D0000115110509F444C0CE0101960E94EB00E8
:1018E000877030913F0120914001823099F5E0915D
:1018F000B301F091B401309799F180912401909156
:1019000025018730910561F5832FEC017E01F22ED0
:10191000E70193818B81981719F50E944501A091E9
:10192000B301B091B4019D01285D3F4F888191E0E2
:10193000F9019483C80FD11DCE010197FC0180816C
:1019400098968C9388818F77F901818380E00E943B
:10195000F30606C0813021F489E00E94E3014DC006
:101960000E94230B4AC01092AF010E9443010E94C3
:10197000830543C08E3309F040C00E94430180912B
:101980002401909125018830910591F40E94110164
:101990000E94B5050E9443010E94870581E090E006
:1019A000909325018093240183E00E94EA0625C0DC
:1019B00080919004882349F484E090E0909325017D
:1019C000809324010E94040718C00E94870583E0C9
:1019D00090E090932501809324010E94850066E3A6
:1019E00071E00E94941C0B969093550180935401D2
:1019F000BC0180E090E00E945206DF91CF911F91E0
:101A00000F91FF90EF9008951F9383E00E94DF0AEB
:101A1000182F882319F083E00E949C08812F1F91C2
:101A20000895EF92FF920F931F93CF93DF93EC01F2
:101A3000162F82E00E948C08882309F06AC08091EA
:101A40002804982F9F5F909328048B830FB7F894F6
:101A500082E00E94FA00882329F40FBF0E94A303AA
:101A600081E05AC0E8E2EE2EF12CEC0EFD1E84E07F
:101A70000E94F400D0930202C09301020FBF812F95
:101A8000835FFE0181938F01CF010E94EB00807282
:101A9000907089831A82C8010E94EB008164986863
:101AA00089839A83F701148218A61182CE018E963B
:101AB00040E050E060E070E80E94E00051E05093A8
:101AC000230420910102309102024FB7F8948091D3
:101AD0002401909125018830910519F081309105FC
:101AE00011F04FBF18C082E090E0909325018093E1
:101AF0002401509390043093B4012093B3011092C9
:101B000043014FBF0E94040D882329F40E946803FB
:101B100002C085E001C080E0DF91CF911F910F915D
:101B2000FF90EF900895952F2D3108F03EC0E42FDF
:101B3000F52F8387668377835FB7F8943091B00180
:101B40008091B1015FBF348385835FB7F894309192
:101B50000601809107015FBF30878187809109016D
:101B6000882359F0109209018FE38287842F622F16
:101B70000E94110D882389F408952093FF0110928B
:101B8000000240932801909329018CE00E94E30118
:101B900080910901882359F004C09FEF90930901B7
:101BA00008951092B90180E0089582E0089589E0D7
:101BB0000895EF92FF920F931F93DF93CF9300D07E
:101BC000CDB7DEB780911C0190E0019665E070E032
:101BD0000E94A81C10E025E030E0482F50E0FA01F8
:101BE000EE0FFF1FE95FFD4F608171816115710587
:101BF00099F0E82FE695E695E695F0E0EA57FB4F79
:101C0000608170E0FA01E770F07002C07595679529
:101C1000EA95E2F760FF09C0CA010196B9010E9486
:101C2000A81C1F5F1530C9F622C080931C01E091EB
:101C30001C01E530F8F4F0E0EE0FFF1FE95FFD4F07
:101C4000408151818A01C801069649835A830E94C6
:101C5000EB00BC01F80120812D508385A8010E9472
:101C6000930D882339F084E10E94E30103C01093AF
:101C70001C01DDCF0F900F90CF91DF911F910F913D
:101C8000FF90EF900895DF93CF9300D0CDB7DEB7EC
:101C90009C0180911C018530A8F4E82FF0E0EE0F44
:101CA000FF1FE95FFD4F408151814217530751F4F7
:101CB000118210826A8389830E94D90D89816A8189
:101CC0000E9452070F900F90CF91DF910895CF920D
:101CD000DF92FF920F931F93DF93CF9300D0CDB786
:101CE000DEB7082F162F853088F5C82EDD24CC0CE2
:101CF000DD1C87E092E0C80ED91EF601808191813B
:101D0000009731F560837183E62FF72F842F835F6F
:101D1000808380911C018530E8F0F384CF01069622
:101D200049837A830E94EB00BC0100931C018F2D34
:101D3000412F5A8129810E94930D882361F095E0FB
:101D400090931C01F6011182108205C081E003C04E
:101D500085E001C080E00F900F90CF91DF911F913F
:101D60000F91FF90DF90CF900895CF93DF93BC0148
:101D7000C1E1D2E0CE010E94B2038EE080931C024A
:101D800084E0BE0141E10E94670EDF91CF9108958A
:101D90008F929F92AF92BF92CF92DF92EF92FF927B
:101DA0000F931F93DF93CF930F92CDB7DEB7E82F3A
:101DB000F0E0E531F10508F014C7EA5BFF4FEE0FE4
:101DC000FF1F0590F491E02D09941FB7F8940E942D
:101DD000E606E1E0EE2EF12CF0922501E0922401DE
:101DE0001092260110928F011092A9011FBF1FB7F8
:101DF000F8940E949605F092A601E092A501109237
:101E0000AF010E946B0180E488BF8AB780628ABFFD
:101E10008AB78F7E8ABF89B7806489BF1FBF1FB70B
:101E2000F89480911F01909120018430910519F45C
:101E300083E00E94A2051FBF1FB7F8940E944301D0
:101E400080E00E9444051FBF82E00E94F4001092CF
:101E50002B011CC680E00E94F400C3C68FB7F89423
:101E600010911E018FBF83E00E94FA00882351F178
:101E70000FB7F89410922501109224010E94450199
:101E80000E946F0183E00E9444050E9443010FBF3E
:101E90000FB7F8941092A6011092A5010E94960522
:101EA0000E9443010E946B010FBF1092200110920B
:101EB0001F010E946901DD980E94670181E00E9474
:101EC000E30103C082E00E94F400E0900102F09080
:101ED00002020E94A303D7011A968C911A978F339E
:101EE00009F07FC68FEF80930901C701612F6EC48F
:101EF0000E94F30876C68FB7F89410928E0406C03D
:101F00008FB7F89490912101992311F08FBF69C682
:101F10008FBF01E0869B00E08091F9019091FA016A
:101F20009817E1F00817D1F484E090E09093200135
:101F300080931F018FB7F89491E0909321018FBF98
:101F40008DE160E070E00E94A9020E9467080E9493
:101F500043010E94110180E00E94E3010093FA0115
:101F600085E0FEC59FB7F894809102019FBF823043
:101F700009F45DC0833030F4882359F0813009F0D2
:101F800030C63CC0833009F4BDC0843009F029C696
:101F9000E2C00E9411010FB7F89480911F01909147
:101FA00020018230910541F583E090E0909320017B
:101FB00080931F018DE168E170E00E94A90281E039
:101FC0008093F90110922101869B80E08093FA01B1
:101FD00085E00E94E30181E00E94A2058CE16FE7A9
:101FE00072E00E94A9020E948C060E949C0687E172
:101FF00066E57AE20E94A9020FBFF3C50E941101B3
:1020000086E00E94A2050E948C060E949C060E9407
:1020100067080E9443010E94110183E00E94A2050B
:102020000E94430181E00E94440584E099C50E941A
:1020300011011FB7F8940E941B01882321F01FBFD4
:1020400000E010E011C01FBF83E50E949E0280E007
:102050000E949E02182F80E00E949E02312F20E0F5
:10206000082F10E0022B132B0E94430182E00E94F4
:10207000440510922B010E942D0130912504832FDD
:1020800090E0880F991F880F991FFC01E657FD4FBC
:1020900020910001208320913C01FC01E557FD4F78
:1020A0002083FC01E457FD4F01581F4F018310822C
:1020B000832F8F5F80932504843610F010922504BF
:1020C0009091250480918B04981719F481E08093F6
:1020D00086022F5F20933C0185E044E650E060E0FB
:1020E00070E00E94480280913C018A3008F479C572
:1020F00080917C028D7F80937C026FE070E080E0B5
:1021000090E032C49FB7F894809124019FBF84303F
:1021100039F0883041F08230D9F40E94680361C5FB
:102120000E9404075EC50E9411010E94B5050E942D
:1021300043010E9487052FB7F89481E090E09093C7
:102140002501809324012FBF83E00E94EA0649C540
:102150000E94870546C50E948C0543C51FB7F894A9
:1021600080918702909188021092880210928702D3
:1021700010928A0410928904109242011092410137
:1021800010920602109205020E945E0B1FBF29C525
:102190008FB7F8949091AC019093050192E09093E1
:1021A00023018FBF80910501882309F01AC50E9481
:1021B00013010E94110186E0D3C4E0913F01F09128
:1021C00040019F01285D3F4FE080AF014E0D511D42
:1021D000DA018C91881F8827881FD90113968C9368
:1021E000DA018C918F77D90111968C93DA011197CE
:1021F0008C9180A700913F01109140019FB7F89406
:102200008091AA019FBF882309F10A5F1F4FC8016F
:102210000E94EB004FB7F8942091F7013091F8013C
:102220004FBF8217930761F0C8010E94EB0021E0C5
:1022300030E0BFEF8F3F9B0729F020E030E002C085
:1022400021E030E02115310509F412C2EE2DED3008
:1022500008F40EC2A0903F01B0904001C50108965D
:102260000E94EB00D50113967C912FEF20938704F9
:10227000AFB7F89460918704E8E4F1E020E030E043
:10228000408151814817590741F44281471721F491
:1022900060938704AFBFE8C1622F2F5F3F4F339633
:1022A0002430310569F760938704AFBF209187041C
:1022B0005FB7F8942F3F21F030912701321721F4B6
:1022C0002091270141E001C040E030E0F901EE0F2C
:1022D000FF1FE20FF31FE85BFE4F91838083728341
:1022E000442331F0809127018F5F83708093270111
:1022F0005FBF38E2C32ED12CCA0CDB1CF6018381F0
:10230000882309F4B1C1D5011A968C911A978F339D
:1023100009F0AAC185010A5F1F4FC8010E94EB00A6
:102320004FB7F89420910601309107014FBF8217F3
:10233000930761F0C8010E94EB0021E030E0BFEF9D
:102340008F3F9B0729F020E030E002C021E030E021
:102350002115310509F488C18501045F1F4F4E2DF9
:102360004D50F50183858C3009F447C08D3020F441
:102370008B3009F079C107C08D3009F442C08E302E
:1023800009F072C156C0453009F06CC180912B0133
:10239000882309F069C10E94D6042DE0E22EF12CB9
:1023A000EA0CFB1CC7010E94240190932D0180932D
:1023B0002C018091000180936701D8018C9180935A
:1023C0006801C7010E942401E9E6F1E0818390934E
:1023D0006901D6012C91822F992787FD909525833D
:1023E00090936D01F801838180930F018481809324
:1023F000310182E10E94E30137C1C501B8012CE03F
:1024000014C080911701843009F42EC1813009F085
:102410002BC180911801833029F4809139018130DA
:1024200009F422C1C501B8012DE00E941F095C0119
:102430001BC1413109F013C1D8018C918093210255
:10244000C5010E960E9424018093230290932202DC
:1024500086E080931D028091130190911401909366
:102460000E0180930D01F80180818C3009F46FC05A
:102470008D30B8F4843009F449C0853040F482309E
:1024800049F1833050F5813009F0E3C034C08A301F
:1024900009F44FC08B3008F053C0883009F0D9C020
:1024A0003FC0803109F47DC0813138F48E3009F4A9
:1024B0006AC08F3008F06EC051C0823109F496C0F6
:1024C000823108F475C0833109F497C0843109F072
:1024D000C0C09AC00E940E0221C00E94D501F8948B
:1024E00028E088E190E00FB6F894A89581BD0FBE72
:1024F00021BD0000FECF0E94A30486E080931D0250
:1025000082E00E948E040E941202AEC0C501439672
:102510000E942401809310010E94120282E09CC05C
:10252000C80107960E94240190931401809313011F
:10253000F3CF809115018093250210922402ECCFF5
:10254000C80107960E94240180931501E5CFC501BB
:1025500043960E94240180931601DECF80911801DA
:10256000813029F4C80107960E94240110C08330ED
:1025700009F07AC0C80107960E94240190933B019C
:1025800080933A01C9CF82E08093180181E0809363
:102590000C01C2CFC80107960E9424018093170145
:1025A000BBCFC50143960E94240180931801B4CF8C
:1025B00080911701843009F457C0823019F40E94C9
:1025C000A30449C0813009F04FC0909118019330A5
:1025D00009F04AC090913901992309F045C08093D0
:1025E00039010E948E040E9416023EC0C80107965F
:1025F0000E942401809319018FCFC80107960E9481
:10260000240180931A0188CFC80107960E942401F3
:1026100080931B01C80109960E9424018130910515
:1026200019F583E00E948E04C8010B960E942401D4
:10263000009741F48091850281FF16C08D7F8093C1
:10264000850212C0AC0160E070E086E00E945F0489
:102650000BC00E94D50181E00E948E0405C081E07C
:102660000E948E040E94D501B0924001A0923F01C9
:102670008FB7F8941092AF018FBF0E94230BB1C2A5
:102680008091A801882311F5EFB7F8946091560165
:1026900070915701809158019091590120911B042C
:1026A00030911C0440911D0450911E04620F731F51
:1026B000841F951FEFBF2091290430912A04409177
:1026C0002B0450912C0400E00E943A040E941E0248
:1026D00050C00E941E029B01AC018FB7F89410926B
:1026E00003028FBFE7E4F2E060E070E099249FEF1F
:1026F000E92E9FEFF92E9FEF092F9FE7192FDB019E
:1027000083E0AA0FBB1F8A95E1F7A60FB71FA95B4D
:10271000BD4F18968C91189781FF1BC080819181C5
:10272000A281B38159016A01A81AB90ACA0ADB0A4F
:1027300084819581A681B7818A199B09AC09BD095D
:102740008E159F05A007B10724F47C018D01992403
:1027500093946F5F7F4F39966730710581F69920AA
:1027600009F43FC21E141F04100611062CF0CA0102
:10277000B9010E94FA0935C2CA01B901A80197013D
:1027800001E00E943A042DC28091B90190910901A3
:10279000891709F426C2809309018823D1F4809116
:1027A0002801909129016091FF012FE3DC011A9625
:1027B0002C930E94110D682F882309F412C28FEF09
:1027C0008093090180912801909129010E94430E74
:1027D00008C28FEF8093090104C280912B018823E6
:1027E00019F583EC91E060910F010E94A90390918B
:1027F0002E0180912F010FEC11E0F801918380935D
:10280000CF01C8010C976FEF7FEF0E94B2038DE0FC
:102810008093CE0181E0B8016C50704044E00E948A
:10282000670E882309F495C10E94D5010E941A02FF
:10283000D8C180912B01882309F078C080911701BD
:10284000843009F4CEC180911501882309F4C9C1EF
:1028500010918602112309F0BCC180912A018823BE
:1028600009F0B7C10E947C0220911801223021F4A6
:10287000009709F0AEC1B5C1213021F420910C01BF
:1028800030E00CC0233009F0ACC120913901222383
:1028900009F09FC120913A0130913B0182179307C3
:1028A00008F097C19EC1112319F41092890299C1B1
:1028B00010923C013091180120912C0190912D0132
:1028C000323009F054C0209368019093670109E603
:1028D00011E080918A02D80111968C931197109281
:1028E000690180918B0213968C9310926B018CE896
:1028F00092E00E942401F801858390936D01C80144
:102900000E97609110010E94A903609113017091CC
:102910001401C8010E970E94B20381E18093660101
:1029200083E0B8016E50704048E071C00E94D5014C
:1029300000911A010E948500AC01802F65E00E9481
:10294000881C202F30E0280F311D80911A0163E090
:102950000E94881C682FCA0170E00E94941C281BEA
:10296000390BB90180E090E00E9476023AC12093D1
:10297000680190936701CC24E4E68E2E912C2AC046
:102980000C2D10E0E82EFF24000F111FF801E6596E
:10299000FE4FC701880F991F880F991FDC01A657AA
:1029A000BD4F2C9121831082F801EE58FE4F1196F5
:1029B0002C912183108284579D4F0E942401F8019D
:1029C000E658FE4F81839083C394C7010196B401FA
:1029D0000E94A81C8A1521F090910C01C91680F262
:1029E000C09269018BE591E0609110010E94A903FA
:1029F00060911301709114018BE591E00E94B20384
:102A000080E18093660182E06BE571E04BE10E941A
:102A1000670E882309F08ACF81E080932B01809193
:102A20002C0190912D01019690932D0180932C0102
:102A3000D8C080912B01882339F590912C01809189
:102A40002D01EFE1F2E0918380931F0282E08093F9
:102A5000210286E080931D028091170186831092E7
:102A6000240211E0108710922602909100018091BB
:102A700001019287809328028091130190911401A3
:102A80000E94B50E882331F10E94D5010E940E02EA
:102A9000A8C080912B01882301F5EFE1F2E011E05D
:102AA000118310921F0290913D0180913E01968307
:102AB0008093240285E180931D0280911B01808711
:102AC0001092260280910D0190910E010E94B50E88
:102AD000882319F410932B0184C00E94D50180E152
:102AE0003FC080912B01882381F490912C0180912B
:102AF0002D019093200280931F0280910D019091EF
:102B00000E010E94B50E882321F10E94D5010E947A
:102B1000120267C080912B018823F9F48091000193
:102B2000809367018BE591E060910F010E94A903FA
:102B30008BE591E06FEF7FEF0E94B2038AE0809314
:102B4000660180E06BE571E048E00E94670E882333
:102B500021F481E080932B0144C00E94D50182E1E1
:102B60000E94E3013EC0809186048823D1F157E0A2
:102B7000E52E52E0F52E10E001E090918604802FC2
:102B8000892361F0D7011D921C92802F80958923A3
:102B900080938604812F63E00E9452071F5FE2E06A
:102BA000F0E0EE0EFF1E1830E1F0000FE6CF80914E
:102BB0001C01E82FF0E0EE0FFF1FE95FFD4F1182CF
:102BC000108289830E94D90D898161E00E94520799
:102BD00008C0A090250480918B04A81609F068CE47
:102BE00062CE0F90CF91DF911F910F91FF90EF90E8
:102BF000DF90CF90BF90AF909F908F9008950E94EC
:102C000073018F3F21F00E94C80E81E0089580E09B
:102C100008958FB7F89408958FBF08950F931F9369
:102C20001FB7F89480E991E06FEF70E045E150E064
:102C30000E94111D8FEF8093820480938F0481E0A6
:102C40008EBD88E080BF83E083BF8CB59DB54AE729
:102C500001C0C9012CB53DB52817390708F441500A
:102C60004423B9F782B792B79817E9F32CB53DB56D
:102C700082B792B79817E9F38CB59DB54096821B41
:102C8000930BA5E096958795AA95E1F79093840418
:102C90008093830413BE83B78EBD8EB580BF12BEF2
:102CA0001DBC1CBC8FEF86BF86B780937C0080B7AD
:102CB00090E0877090700097D1F7D29AD19AD09A0D
:102CC0000E9483000E9481000E947F0015BA8FEF4E
:102CD00084BBD498DC981DBC1CBC87B7846087BFBC
:102CE0008EB5887F84608EBD80E285BF0E94FF150F
:102CF0008823E1F70FEF0093AD018FEF9FEF9093E3
:102D000049018093480110924A0190934C018093AD
:102D10004B0110924D0190934F0180934E01109200
:102D200050019093520180935101109253010E94DF
:102D30008500809328048091000190910101019603
:102D4000A0E0B0E08093B5019093B601A093B701E5
:102D5000B093B80180B7886080BF8BE083BF86EEF8
:102D600081BF87B7826087BF0E94B6038DE494E07D
:102D70009093400180933F018E980E9413018C989C
:102D80000093BE0110921F0410922004109221049F
:102D9000109222040E941301D69AD59A2FB7F89464
:102DA00080910601909107012FBF9093F8018093C5
:102DB000F701809108018093B0011092B1018FE179
:102DC00080931A048AE1809326041092AA0110923B
:102DD00088041092B201109224040E94FF158823E7
:102DE000E1F71FBF789481E080932B0180E090E0B1
:102DF0009C01220F331F220F331FF901E657FD4FAD
:102E00001082F901E557FD4F1082F901E457FD4F9B
:102E10001182108201968436910551F710928B042D
:102E2000109225041092890281E0809386020E940C
:102E30008C088823C9F42FB7F89480911F019091D2
:102E40002001009711F02FBF17C081E090E0909310
:102E5000200180931F012FBFDD9A64E170E080E0C4
:102E600090E00E94520608C082E00E94FA00882387
:102E700019F481E00E94FA000E94A30484E0809388
:102E80000C0110922A0110922B0110922D01109228
:102E90002C018FE180930F0180931001109230017B
:102EA00010923101109232011092330110923401CC
:102EB00084E690E090931201809311011092360104
:102EC0001092350181E090E09093140180931301FA
:102ED00011E0109315011093160110923801109211
:102EE00037010E9483000E9481000E947F0010929F
:102EF0008B0410922504109289021093860280910F
:102F0000000190910101883C910520F082E08093BE
:102F1000170102C01093170121E0209318011092AD
:102F2000390180E590E090933B0180933A018091D4
:102F300013019091140190930E0180930D01209341
:102F4000190110923C018FE080931A0120931B011C
:102F500082E00E948E041FB7F89443C087B7887B35
:102F6000A1F480917D008B7F81F46E990EC09AB19F
:102F700080919A00892B807C41F48091740082FDBD
:102F800004C0379B04C021E003C020E001C025E05D
:102F900087B790E083709070009779F080B790E0E9
:102FA000877090700097D1F781B792B7891B8C30EA
:102FB00030F082B7853F28F002C0E5E003C0E2E0D0
:102FC00001C0E3E085B72E1708F4E22FF0E0EA54E1
:102FD000FF4FE491837C80628E2B85BF7894889527
:102FE000F8940E9473018F3F09F4B8CF1FBF0E946D
:102FF000C80EB1CF1F920F920FB60F920BB60F9261
:1030000011242F933F934F935F936F937F938F93ED
:103010009F93AF93BF93EF93FF930E94890121B7D2
:1030200030E02F5F3F4F40E050E0809144019091AD
:103030004501A0914601B0914701820F931FA41F43
:10304000B51F8093440190934501A0934601B0932E
:10305000470178940E94B603FF91EF91BF91AF9121
:103060009F918F917F916F915F914F913F912F91A0
:103070000F900BBE0F900FBE0F901F9018951F92D0
:103080000F920FB60F920BB60F9211242F933F930E
:103090004F935F936F937F938F939F93AF93BF9360
:1030A000EF93FF930E948901FF91EF91BF91AF9140
:1030B0009F918F917F916F915F914F913F912F9150
:1030C0000F900BBE0F900FBE0F901F901895789425
:1030D0001F920F920FB60F920BB60F9211241F93EF
:1030E0002F933F934F935F936F937F938F939F9310
:1030F000AF93BF93EF93FF930E94450178941FB75E
:10310000F8948091BA019091BB01A091BC01B0915B
:10311000BD010097A105B10509F051C080912401BE
:10312000909125018530910561F18630910538F443
:103130008330910559F08430910561F519C08730CD
:103140009105E9F08830910529F512C0869B0DC0E4
:1031500084E090E0909325018093240167E070E083
:1031600080E090E00E94520615C00E94760612C0D0
:103170000E94040D882371F40E9404070BC080E0B4
:1031800007C00E94B5050E94E6060E94870587E0F9
:103190000E94F30680911F019091200181309105DA
:1031A00081F482E090E09093200180931F010E94BF
:1031B00069010E94670180E00E949C0802C00E9491
:1031C000C3051FBFFF91EF91BF91AF919F918F9169
:1031D0007F916F915F914F913F912F911F910F9030
:1031E0000BBE0F900FBE0F901F90189578941F92F2
:1031F0000F920FB60F9211240F900FBE0F901F90D9
:10320000189578941F920F920FB60F9211240F9079
:103210000FBE0F901F90189578941F920F920FB6C3
:103220000F920BB60F9211246F927F928F929F9202
:10323000AF92BF92CF92DF92EF92FF920F931F93C4
:103240002F933F934F935F936F937F938F939F93AE
:10325000AF93BF93EF93FF93DF93CF930F92CDB7CD
:10326000DEB7CCB4DDB480E286BFBFB6F8940E946E
:1032700049017601E61AF70A0027F7FC0095102F9E
:10328000E60EF71E081F191F809124019091250159
:103290008530910529F08630910509F07FC05CC02A
:1032A00086E090E0909325018093240181E0809353
:1032B000AE011092260180E00E94CB068091B301FE
:1032C0009091B4018E96B801A7010E94E000E091B0
:1032D000B301F091B40185A5882349F120812550DF
:1032E0003F01620E711CC30129830E948F01AB0153
:1032F000BC014E195F09600B710BC3010E94E00015
:103300000E94110180E090E02981622FA3010E94B8
:103310002A080E944301C3010E948F01AB01BC0136
:103320004E0D5F1D601F711FC3010E94E000809160
:10333000B3019091B40101960E94EB0085FF03C098
:1033400081E080938F010E9487050E9445010E94C1
:10335000BA01882309F07BC01092AE010E94E606F4
:103360008091B3019091B40101960E94EB0085FF1A
:103370000DC087E090E0909325018093240160E0E8
:1033800071E080E090E00E94520603C080E00E945D
:10339000F3060E94BA01882309F459C080912601DE
:1033A000882379F58091AE01882359F581E08093D7
:1033B000AE0180E00E94CB060E94BA01A82E809147
:1033C0008104883090F4E0918504E80FE770F0E024
:1033D000EE0FFF1FEE0FFF1FE35DFB4FE082F18258
:1033E000028313838F5F8093810481E080932601A1
:1033F000D092FE01C092FD010E94BA01882311F013
:1034000026C0AA248091AE01813009F51092AE0148
:103410000E94E60610922601AA20C9F48091FD01BF
:103420009091FE01C81AD90A2AE0C216D10478F494
:1034300080918104882319F08150809381048091C8
:10344000B3019091B401009711F00E94B905BFBE7D
:103450000F90CF91DF91FF91EF91BF91AF919F912D
:103460008F917F916F915F914F913F912F911F911C
:103470000F91FF90EF90DF90CF90BF90AF909F9013
:103480008F907F906F900F900BBE0F900FBE0F909C
:103490001F90189578941F920F920FB60F921124D7
:1034A0002F938F939F932FB7F8948091450290911B
:1034B0004602019690934602809345022FBF9F914A
:1034C0008F912F910F900FBE0F901F9018951F9204
:1034D0000F920FB60F9211240F900FBE0F901F90F6
:1034E00018951F920F920FB60F9211240F900FBED6
:1034F0000F901F9018951F920F920FB60F921124E4
:103500000F900FBE0F901F9018951F920F920FB63D
:103510000F9211240F900FBE0F901F9018951F92BD
:103520000F920FB60F9211240F900FBE0F901F90A5
:1035300018951F920F920FB60F9211240F900FBE85
:103540000F901F9018951F920F920FB60F920BB607
:103550000F9211242F933F934F935F936F937F9319
:103560008F939F93AF93BF93EF93FF938091A501A8
:103570009091A6018130910549F482E090E090930A
:10358000A6018093A5010E940A0B05C08091AB01A2
:103590008F5F8093AB01FF91EF91BF91AF919F91AE
:1035A0008F917F916F915F914F913F912F910F90EC
:1035B0000BBE0F900FBE0F901F9018951F920F9289
:1035C0000FB60F9211240F900FBE0F901F901895F9
:1035D0001F920F920FB60F920BB60F9211242F93DA
:1035E0003F934F935F936F937F938F939F93AF938B
:1035F000BF93EF93FF932FB1809187029091880240
:10360000009739F0E0910502F0910602E80FF91FEA
:103610002083809105029091060201969093060204
:103620008093050280E00E94BE0120910502309146
:10363000060280914101909142012817390718F440
:103640000E94C80217C08091870290918802109250
:1036500088021092870210928A04109289041092B4
:1036600042011092410110920602109205022FB100
:103670000E945E0BFF91EF91BF91AF919F918F914F
:103680007F916F915F914F913F912F910F900BBE62
:103690000F900FBE0F901F901895ACE2B0E0E3E5DD
:1036A000FBE10C94DA1C29833A834B835C836D83A2
:1036B0007E838F839887A986BA86CB86DC86ED8643
:1036C000FE860F87188B69807A808B809C8069A228
:1036D0007AA28BA29CA2840173018FEF9FEFA0E0DE
:1036E000B0E0E822F9220A231B23140144245524C4
:1036F00069847A848B849C846DA27EA28FA298A612
:1037000064015301A822B922CA22DB223401882491
:103710009924C601B501A80197010E94BB1C69A7A5
:103720007AA78BA79CA7C401B3010E94BB1C7B0195
:103730008C01C601B501A20191010E94BB1C5B0175
:103740006C01C401B3010E94BB1C9B01AC01EA0CDB
:10375000FB1C0C1D1D1D69A47AA48BA49CA4C40190
:10376000AA27BB27E80EF91E0A1F1B1FEA14FB0439
:103770000C051D0520F4205030404F4F5F4FC8010D
:10378000AA27BB27820F931FA41FB51F8D8F9E8F63
:10379000AF8FB8A38701FF24EE2429A53AA54BA536
:1037A0005CA540705070E20EF31E041F151FE98ED9
:1037B000FA8E0B8F1C8FDE2CAA8CCB8C6C8C8D8B95
:1037C0008E8D8E8B8F8D8F8B88A1888F2D853E85DA
:1037D0004F85588969A17AA18BA19CA10E94BB1C2D
:1037E0007B018C012D813E814F8158856DA17EA189
:1037F0008FA198A50E94BB1CE60EF71E081F191F7B
:103800006D897E898F89988D6E0D7F1D801F911F18
:103810006D8B7E8B8F8B988F7E892D2D3A2D4C2D25
:10382000562D8F89988DAC96E2E10C94F61C0F937F
:10383000DF93CF93CDB7DEB760970FB6F894DEBFB6
:103840000FBECDBF002309F459C029833A834B83AF
:103850005C836D837E838F839887E0E2E01B2D81FC
:103860003E814F8158851E16BCF01D861E861F8620
:10387000188A8E2F992787FD9095909581959F4F57
:1038800004C056954795379527958A95D2F729878D
:103890003A874B875C872AC0CA01B901002E04C051
:1038A00096958795779567950A94D2F76D877E8769
:1038B0008F87988BDA01C90104C0880F991FAA1F4E
:1038C000BB1FEA95D2F729813A814B815C8104C004
:1038D00056954795379527950A95D2F7822B932BC6
:1038E000A42BB52B89879A87AB87BC8729853A8516
:1038F0004B855C856D857E858F85988960960FB632
:10390000F894DEBF0FBECDBFCF91DF910F91089528
:10391000991B79E004C0991F961708F0961B881F21
:103920007A95C9F780950895AA1BBB1B51E107C082
:10393000AA1FBB1FA617B70710F0A61BB70B881F3F
:10394000991F5A95A9F780959095BC01CD010895CE
:1039500097FB092E07260AD077FD04D0E5DF06D0B5
:1039600000201AF4709561957F4F0895F6F79095B1
:1039700081959F4F0895629FD001739FF001829FB0
:10398000E00DF11D649FE00DF11D929FF00D839FEE
:10399000F00D749FF00D659FF00D9927729FB00D8B
:1039A000E11DF91F639FB00DE11DF91FBD01CF019E
:1039B000112408952F923F924F925F926F927F92BF
:1039C0008F929F92AF92BF92CF92DF92EF92FF922F
:1039D0000F931F93CF93DF93CDB7DEB7CA1BDB0BDB
:1039E0000FB6F894DEBF0FBECDBF09942A88398880
:1039F00048885F846E847D848C849B84AA84B98487
:103A0000C884DF80EE80FD800C811B81AA81B98192
:103A1000CE0FD11D0FB6F894DEBF0FBECDBFED01A6
:103A20000895DC0101C06D9341505040E0F70895C6
:043A3000F894FFCF38
:103A34000100FFFFFFFF010022FFFFFF0401001F41
:0E3A44001F6400010001010101010F010500D6
:00000001FF
