S01700006275696C642F697269732F6D61696E2E7372656343
S11300000C947D010C949C010C949C010C949C0117
S11300100C949C010C949C010C949C010C949C01E8
S11300200C949C010C949C010C949C010C949C01D8
S11300300C949C010C9413170C949C010C94591768
S11300400C9475180C9429180C945F180C946A1865
S11300500C94B0180C949C010C949C010C949C017D
S11300600C9481170C94DB180C949C010C94491982
S11300700C949C010C949C010C949C010C949A1A71
S11300800C94791A0C94841A0C948F1A0C94AD1A4B
S11300900C945C1A0C949C010C946E1A0C949C01A4
S11300A00C949C010C949C010C949C010C949C0158
S11300B00C949C010C949C010C949C010C949C0148
S11300C00C949C010C949C010C949C012510A1108F
S11300D0D010F310091132118D11C1113C12831289
S11300E0C612D9122913E1131F1421142F147014EA
S11300F0C714EA1400002110422063308440A55044
S1130100C660E770088129914AA16BB18CC1ADD159
S1130110CEE1EFF13112100273325222B552944201
S1130120F772D662399318837BB35AA3BDD39CC3A9
S1130130FFF3DEE36224433420040114E664C7744D
S1130140A44485546AA54BB528850995EEE5CFF5F9
S1130150ACC58DD55336722611163006D776F666A1
S11301609556B4465BB77AA719973887DFF7FEE749
S11301709DD7BCC7C448E5588668A778400861186D
S113018002282338CCC9EDD98EE9AFF94889699999
S11301900AA92BB9F55AD44AB77A966A711A500A41
S11301A0333A122AFDDBDCCBBFFB9EEB799B588BE9
S11301B03BBB1AABA66C877CE44CC55C222C033C8D
S11301C0600C411CAEED8FFDECCDCDDD2AAD0BBD39
S11301D0688D499D977EB66ED55EF44E133E322EE1
S11301E0511E700E9FFFBEEFDDDFFCCF1BBF3AAF89
S11301F0599F788F8891A981CAB1EBA10CD12DC1E7
S11302004EF16FE18010A100C230E320045025407C
S113021046706760B9839893FBA3DAB33DC31CD3DC
S11302207FE35EF3B1029012F322D23235421452CC
S113023077625672EAB5CBA5A89589856EF54FE528
S11302402CD50DC5E234C324A0148104667447641C
S113025024540544DBA7FAB79987B8975FE77EF77C
S11302601DC73CD7D326F2369106B016576676766C
S1130270154634564CD96DC90EF92FE9C899E98948
S11302808AB9ABA94458654806782768C018E108BC
S11302908238A3287DCB5CDB3FEB1EFBF98BD89B1C
S11302A0BBAB9ABB754A545A376A167AF10AD01A0C
S11302B0B32A923A2EFD0FED6CDD4DCDAABD8BAD68
S11302C0E89DC98D267C076C645C454CA23C832C5C
S11302D0E01CC10C1FEF3EFF5DCF7CDF9BAFBABFBC
S11302E0D98FF89F176E367E554E745E932EB23EAC
S11302F0D10EF01E00020E060C0411241FBECFEF17
S1130300D1E2DEBFCDBF12E0A0E0B2E0EAE5F9E35E
S113031000E00BBF02C007900D92A431B107D9F7DA
S113032015E1A4E1B2E001C01D92A830B107E1F7E4
S11303300E9410150C94AB1C0C940000169A08959E
S11303402F980895289A0895209A0895EFE6F0E0EA
S113035080818F7D80830895FC01918180E02081DC
S113036030E0282B392BC901089506960E94AC0170
S1130370089501960E94AC019C0127743C7C81E0A5
S113038098E82134390709F080E008950F931F930A
S1130390CF93DF938C01EC012196CE010E94AC0136
S11303A08062F8018183998380E0DF91CF911F916E
S11303B00F9108959FB7F89482B124E0822782B9FF
S11303C09FBF08959FB7F89482B121E0822782B934
S11303D09FBF08959FB7F89481E030912D04209138
S11303E02E04321380E09FBF08952F9A08950DB410
S11303F007FEFDCF8EB50895982F0DB407FEFDCFEF
S11304008EB59EBD0895289808951F93DF93CF93CA
S11304100F92CDB7DEB7182F69830E940302106CC8
S11304201EBD89810E94FC010E94F7010E94A20165
S11304300F90CF91DF911F910895009721F00197BC
S113044001960197E1F70895882319F08CB580642B
S113045002C08CB58F7B8CBD0895FB0121E030E098
S113046002C0220F331F8A95E2F7209580A98223C8
S113047080AB0895DF93CF930F92CDB7DEB7898316
S11304800E940302898180688EBD80E00E94FC0185
S11304900E94F70189830E94A20189810F90CF9164
S11304A0DF9108958093750681E08093A8032091DD
S11304B0840030918500EFB7F89480918400909186
S11304C085000396AC01421B530B4617570718F4DB
S11304D0CB01820F931F009711F481E090E0019704
S11304E0909389008093880082E086BB80916F009E
S11304F0826080936F00EFBF0895CF93DF93EC0188
S113050001960E94AC0185FF15C0CE010E94B9017D
S1130510882381F0CE010E94B501AC018FB7F89415
S113052020910202309103028FBF81E090E04217D4
S1130530530711F080E090E0DF91CF910895FB0123
S113054021E030E002C0220F331F8A95E2F780A930
S1130550822B80AB0895EFE6F0E080818D7F80836D
S1130560089501960E94AC019C012770307081E0CF
S11305702230310509F080E008959C012627022EDF
S11305802295207F2025032E322F22952F700226BC
S1130590269532272327220F220F220F2025C90157
S11305A008956FB7F8942091390430913A0440913A
S11305B03B0450913C04809184009091850076B373
S11305C070FF08C02F5F3F4F4F4F5F4F80918400F3
S11305D0909185006FBFA90133272227A0E0B0E0E6
S11305E0282B392B4A2B5B2BB901CA0108959FB7DD
S11305F0F89480915E028F5F80935E029FBF08959E
S11306009091B60093FDFCCF8093B30008951092AF
S1130610CF141092CE141092FB021092D7041092B1
S1130620E2141092FF0210923E0410923D040895C9
S11306308091E7148F3F89F0282F30E0F901E95BBE
S1130640FD4F90819093E7149F3F11F49093FD1414
S1130650295B3D4F9FEFF901908308958091B0008D
S11306608093B0008091B60081FDFCCF089588236B
S113067019F08CB5806802C08CB58F778CBD089555
S11306809FB7F8948093C600E0ECF0E0808180642A
S113069080839FBF08959FB7F894E82FF0E0E95B4B
S11306A0FD4F20812F3F49F421E030E04091FD14BB
S11306B0481729F020E030E002C021E030E02115A5
S11306C0310589F42091E7142F3F19F48093E7143E
S11306D006C0E091FD14F0E0E95BFD4F8083809358
S11306E0FD1480E001C085E09FBF0895909122022F
S11306F0992399F5882389F581E0809322028091DA
S11307000B0280932302209117022170209341024F
S113071080911002909111029093250280932402FB
S1130720809118028093260231E0211130E020915B
S11307301702267EE32FF0E0EE0FFF1FE45FFD4F6C
S1130740808191819093110280931002232B209336
S1130750170281E10E944B0308958091170280FFE4
S113076002C08B7F01C08D7F809317020895809112
S11307702A02813019F487E00E944B0308952091E6
S11307802A02222371F49093D5048093D40481E047
S113079080932A021092E80387E00E944B0380E0D2
S11307A0089585E00895CF93DF93EC018FE38A8762
S11307B080910A038F5F80930A038B8380913F02A9
S11307C0909140020097A9F488A599A5009719F083
S11307D0CE010E94C601CE010E94BF03882351F4BA
S11307E0D0934002C0933F021092F8021092F70295
S11307F001C085E0DF91CF9108959FB7F89480936D
S11308005B029FBF87E00E944B0308950F931F93E1
S11308101FB7F89480911502823059F580910A022D
S1130820882339F5209108022F3FE9F08FEF809358
S11308300A02822F90E0FC01E655FC4F3081309390
S113084008023F3F11F43093090286559C4F3FEF55
S1130850FC0130832093AC0381E0809315028BE08C
S11308600E944B0304C020930A021092150281E0F7
S113087001C080E01FBF11E018270FB7F8948091E2
S11308801502882311F40E9424020FBF812F1F91A7
S11308900F9108951F931FB7F8948091140282302A
S11308A059F580910702882339F5209105022F3FDD
S11308B0E9F08FEF80930702822F90E0FC01EB5068
S11308C0FD4F3081309305023F3F11F4309306020F
S11308D08B509D4F3FEFFC0130832093620281E0F7
S11308E08093140282E00E944B0304C02093070209
S11308F01092140281E001C080E01FBF91E08927BB
S11309001F910895EF92FF920F931F93DF93CF935C
S113091000D00F92CDB7DEB7182F7A012D3108F031
S113092079C0CA0129836A837B830E94B901298122
S11309306A817B81882329F481E4F701818388E833
S11309408283235FF70120832FB7F89490910202EA
S1130950809103022FBF908781879FB7F89480917D
S113096004029FBF848315821387668377838FB7BE
S1130970F89490911402992371F492E090931402E4
S1130980109207028FBFC7010E94D303182F882338
S113099009F441C00CC08FBFF0926402E09263027C
S11309A00FB7F89480911402882379F403C00E944D
S11309B04A0431C081E0809314021092620282E002
S11309C00E944B030FBF10E026C08091F5028F3FB9
S11309D049F481E090E020910602222329F080E08E
S11309E090E002C081E090E0009789F480910502D4
S11309F08F3F19F41092050206C0E0910602F0E060
S1130A00EB50FD4F10821092060210E001C015E079
S1130A100FBF01C016E0812F0F900F900F90CF9160
S1130A20DF911F910F91FF90EF9008958FB7F89485
S1130A309091B20067B320914202309143024091F9
S1130A4044025091450261FF0CC06091B300909143
S1130A50B2002F5F3F4F4F4F5F4F260F311D411D97
S1130A60511D290F311D411D511D8FBFB901CA01EF
S1130A700895DF92EF92FF920F931F93D82E7A017D
S1130A808B010E9416054D2D50E09A01E3E0220FE0
S1130A90331FEA95E1F7240F351FF901EC5BFB4F97
S1130AA06083718382839383E482F5820683178350
S1130AB0F901E45BFB4F80818360808385E00E94C1
S1130AC04B031F910F91FF90EF90DF9008959FB714
S1130AD0F8948091D2048A3029F481E02091FB02B9
S1130AE0243009F080E09FBF882341F08EE00E940B
S1130AF04B038FB7F8941092160205C08FB7F89481
S1130B0091E0909316028FBF08951F931FB7F89436
S1130B108091F614882341F48CE00E944B038823CF
S1130B2019F481E08093F6141FBF1F9108951F9359
S1130B3080E00E9424021FB7F894229A2398219AF5
S1130B408CB580618CBD80E00E9437038DB58160D7
S1130B508DBD8CB5877F8CBD8CB58B7F8CBD8CB5E2
S1130B608E7F8CBD81E00E9424021FBF1F910895D7
S1130B701F931FB7F89480911502882311F40E94E3
S1130B8097051FBF1FB7F89480911502882359F465
S1130B9081E0809315021092AC038BE00E944B031A
S1130BA01FBF80E024C08091AA038F3F49F481E0F5
S1130BB090E020910902222329F080E090E002C015
S1130BC081E090E0009789F4809108028F3F19F446
S1130BD01092080206C0E0910902F0E0E655FC4FCD
S1130BE010821092090280E001C085E01FBF1F91AE
S1130BF008958FB7F89490910A02992331F4909153
S1130C001502923011F48FBF13C08FBF8FB7F894C1
S1130C1090911502992371F492E090931502109229
S1130C200A028FBF0E9497050E94A4010E94A2019C
S1130C3081E008958FBF0E94B80580E008952F9247
S1130C403F925F926F927F928F929F92AF92BF92E8
S1130C50CF92DF92EF92FF920F931F93CF93DF9384
S1130C60EC0180912B02882309F0FBC08091F314DE
S1130C70853009F0F6C00E94F905882309F4F1C013
S1130C808091D314882309F0ECC088A982FF03C0A3
S1130C906AA96F7001C060E08091E903681731F0C0
S1130CA06093E903606885E00E940502CE010E941A
S1130CB0B9018823B1F086E00E943A0290E08F7176
S1130CC090704091F6022091090330E0240F311D09
S1130CD0E3E035952795EA95E1F7281739070CF4F1
S1130CE0C0C082E069E00E9405020E94D1023B017B
S1130CF04C0188A984FF06C0888185508E01080FA5
S1130D00111D02C000E010E081E00E943A028F71E0
S1130D10893021F087E08093F314A3C0FFB6F894E0
S1130D200E94F5012090840030908500FFBE0E944F
S1130D30A0010E94030280E68EBD5E010894A11CFE
S1130D40B11C5880852D0E94FC018EEF580EE52DB4
S1130D50E73018F077E0E72E01C0E52C5E18FE2C92
S1130D606501F60181916F010E94FC01FA94C9F7B3
S1130D70EA94FF240894E11CF11CEA0CFB1CC10159
S1130D808E559F4F861997095C01CC24B7FCC094FB
S1130D90DC2CA60CB71CC81CD91C01151105A1F02C
S1130DA0F80180819181A281B3818A199B09AC09E0
S1130DB0BD0983839283A183B08306C0F701819127
S1130DC07F010E94FC015A945520C1F70E94F7014B
S1130DD00E94A20182E066E00E940502011511054D
S1130DE081F1F801838190E0A0E0B0E0208130E05F
S1130DF040E050E0522F442733272227822B932BA5
S1130E00A42BB52B218130E040E050E0A901332729
S1130E102227822B932BA42BB52B228130E040E098
S1130E2050E0542F432F322F2227822B932BA42BB5
S1130E30B52B8A0D9B1DAC1DBD1D80839183A283A0
S1130E40B38381E0BE010E949F02ACA6BDA6CEA6DC
S1130E50DFA686E08093F31484E080932B0280E085
S1130E6001C085E0DF91CF911F910F91FF90EF902A
S1130E70DF90CF90BF90AF909F908F907F906F90B6
S1130E805F903F902F900895BC0181E00E94520230
S1130E9008950F931F93CF93DF938C012FB7F8948A
S1130EA0C0915F02D0916002CE018F5E9E4F9093FD
S1130EB0600280935F022FBF89E00E944B03CE0142
S1130EC0B8010E94051C9C012A5D3E4FC901DF91B7
S1130ED0CF911F910F9108952F923F924F925F925D
S1130EE06F927F928F929F92AF92BF92CF92DF9236
S1130EF0EF92FF920F931F93DF93CF9300D000D014
S1130F00CDB7DEB705E0D02E18E0C12EB4E03B2EFD
S1130F10A0E22A2EFBEE4F2EF3E05F2E8091D31435
S1130F20882309F4F8C00E94F905882309F4F3C062
S1130F308FB7F8948090A6039090A7038FBF109268
S1130F40D3148FE00E943A02E82EA82EBB24E8E0D6
S1130F506E2E712C6A207B2083FF24C0883031F0F0
S1130F608C30C9F480912B028823A9F400913C02AF
S1130F7010913D0287E00E943A02F82E82E0B80107
S1130F800E942D0283E0B8010E949F02D801D296EC
S1130F90FC92D29707C060913C0270913D0283E0BD
S1130FA00E942D02A0FE0AC080912B02833011F012
S1130FB0873021F4D092F314C0922B02A2FE4AC0CF
S1130FC080912B02863011F410922B0280912B0217
S1130FD0882309F03FC0BE2DB43099F586E00E9405
S1130FE03A029091F602292F26952695921B8F712D
S1130FF0980F9093F6020E94D1027B018C01E9EFD5
S1131000FFEF8E0E9F1E861A970AAA2497FCA094BF
S1131010BA2C20913C0230913D0281E0B9012C832D
S113102039830E949F02E80CF91C0A1D1B1D2C81A8
S11310303981D9019C96ED92FD920D931C939F9753
S113104007C060913C0270913D0281E00E942D0234
S1131050D0922B026114710409F45DC000912B023B
S11310600430E1F5D092F31410922B028091030323
S1131070833019F4109203034EC00091E6031091DB
S1131080E703C80101960E94AC0185FF0EC0C801A8
S11310900E94B901882349F0C8010E94B50121E0EA
S11310A030E0BFEF8F3F9B0711F420E030E02223B4
S11310B069F08091A803882349F482E061EE72E02C
S11310C00E94520282E08093030325C0109203031E
S11310D01092F71480E00E94FD031DC00530D9F47E
S11310E08091F314873039F482E066E00E940502AF
S11310F00093F3140DC086E00E943A029091090314
S1131100292F26952695921B8F71980F909309038A
S1131110E9E0E0932B0280912B02882309F45FC25B
S1131120893009F0D6C10E9403022EBC0DB407FE1B
S1131130FDCF8EB51EBC0DB407FEFDCF2EB52330FA
S113114008F498C0822F90E08A3291050CF092C086
S11311501EBCE0913C02F0913D028F010F5F1F4FD6
S113116020837EEF672E620EF62DF73018F067E0CD
S1131170862E01C0862C1B830A83B82CEE24FF2400
S113118080E00E94FC01682FAA81BB818D93BB8300
S1131190AA83C7010E94BD027C01BA9489F7882DF5
S11311A08150A82EBB240894A11CB11CA00EB11E12
S11311B000913C0210913D02C8010E94B1028823B3
S11311C019F1809103038230E1F4C8010196E091A2
S11311D0E603F091E703DC0112963C911297238118
S11311E0321749F40E94AC018770907021E030E01E
S11311F08230910511F020E030E081E090E022237C
S113120061F480E090E009C09FB7F89481E02091F8
S11312104204233008F080E09FBF882359F1681806
S11312200CC080E00E94FC01682FF50181935F01EE
S1131230C7010E94BD027C016A94662091F780E098
S11312400E94FC01682FC7010E94BD028C0180E04E
S11312500E94FC01682FC8010E94BD027C0100911C
S11312603C0210913D020E94F701D801D1968C9363
S1131270D19703C051E0E52EF12C0E94A201D09237
S1131280F31410922B02E114F10409F09FC1809031
S11312903C0290903D02C4010E94B102082F80914B
S11312A003038230C1F40E94AB021092A803609140
S11312B0E6037091E703002321F080E00E949F027F
S11312C003C080E00E942D02109203031092F714D1
S11312D080E00E94FD03002309F0F6C0C4010E94CF
S11312E07D028823A1F0D092EA0382E08093EB038D
S11312F0F2011182D40113968C9182838AEE93E0D9
S11313000E941F06882319F483E08093030300914D
S1131310840010918500C4010E947D02882311F08D
S1131320045E1C4F1093FA020093F902809184002A
S113133090918500F801E81BF90BCF011E161F06DA
S11313406CF42091F714222331F40E944407F0E84E
S1131350F093F71403C020682093F71484010F5FFF
S11313601F4FC40108960E94AC0160914602262FCB
S113137030E0F901EE0FFF1FE852FB4E408151812E
S1131380F090D0044817590769F4F901E850FB4E6E
S113139080818F1509F464C0F394F092D004F08234
S11313A070E847C0A8EDB4E1E8EFF4E120E030E0F4
S11313B0EE2470E0622F4D915D914817590791F426
S11313C0209346024091D004F901E850FB4E20815D
S11313D0241709F445C0242F2F5F2093D0042083C1
S11313E070E80DC041912F5F3F4F5F2D541B75175F
S11313F010F4E62E752F622F25303105D9F66530AD
S1131400C1F4E09246022E2D30E0F901EE0FFF1FE9
S1131410E852FB4E918380838091D0048F5F809348
S1131420D004F901E850FB4E80832E5F3A4ED90177
S11314301C928091D004982F9F779F3779F47F373F
S113144068F0E8EFF4E1282F207890819F679813E3
S113145020833196B4E1ED3FFB07B9F76091460272
S1131460F801828170E0FB01EE5FFA4E908190FFFB
S113147007C0FB01E852FB4F9081891719F424C07F
S11314809160908368527B4FDB018C930FB7F89483
S1131490809142048330B8F4E0913E02E80FE330D7
S11314A008F0E350F0E0EE0FFF1FE15DFD4FE08038
S11314B0F180918280828F5F8093420488E00E9451
S11314C04B038E2C9F2C0FBF90923D0280923C02C6
S11314D07DC0982F9150933008F063C091509230A2
S11314E0A0F59091F314913069F42091A80322237C
S11314F049F40E94A00183E06BE273E00E9452026F
S113150082E039C0833009F59330F9F40E94F9057B
S11315108823D9F08FE00E943A0280918100806490
S11315208093810026BA80916F00806280936F005F
S113153060916102606688E00E94050282E066E0D4
S11315400E9405023092F31418C080912B0281503E
S1131550823098F48091F314853079F40E94F9056F
S1131560882359F082E063E00E9405020E94A601EC
S11315701092D31483E08093F31400912B02013072
S113158049F48091F314833009F50E94F501009326
S1131590F3141AC00230D1F48091F3148330B1F4FF
S11315A013C0873099F40E94F905882379F060917B
S11315B06102606688E00E9405028091F314853020
S11315C019F43092F31402C0C0922B0280912B02C2
S11315D0883029F410922B0286E00E944B038091FC
S11315E02B028823B1F48091F314853091F4809117
S11315F0D314882371F480910303882351F48091D8
S1131600F714882331F48091A803882311F40E94ED
S1131610B70380912B02882311F40E940604809161
S1131620A803823009F080C01092A8038091750647
S1131630823009F45FC0833009F464C0813009F05A
S113164073C00091F9021091FA0280918400909184
S113165085002091F714203829F41092F7140E9481
S1131660B70362C0081B190B27FF03C0101611062D
S1131670ECF0E0900103F0900203809103038823CF
S1131680A9F4C7010E941F06282F882381F480E053
S1131690B7010E942D0281E080930303F092E703D7
S11316A0E092E60383E08093F7143EC025E0809146
S11316B0F714982F9F77913059F480788260809343
S11316C0F71480E198E00E9449070E9444072CC067
S11316D087FF0CC0101611064CF4B0E8B093F71451
S11316E0C8012C830E9444072C8102C01092F71475
S11316F0822F05C0109203031092F71480E00E9419
S1131700FD0312C09091F314923019F48093F314F2
S113171009C080912B02863029F410922B0281E0BB
S11317200E943A020E94B90B8FB7F89490915E021E
S11317309130D1F410925E028FBF0F900F900F90F2
S11317400F90CF91DF911F910F91FF90EF90DF9059
S1131750CF90BF90AF909F908F907F906F905F904D
S11317604F903F902F90089591E090935E028FBF29
S1131770D5CB8FB7F89490915E02992329F09068A5
S113178090935E028FBF089591E090935E028FBFA5
S11317900E946C0708959FB7F89480915E0281506F
S11317A080935E02803811F09FBF089581E080939A
S11317B05E029FBF0E946C070895DF93CF930F9240
S11317C0CDB7DEB70E94F70280912A028823C9F4BC
S11317D080912B028823A9F48091F314813029F499
S11317E08091A803882369F402C0853061F083E006
S11317F080932B020E94B90B84E080932A0280E03C
S113180003C085E001C089E089830E94CB0B8981F4
S11318100F90CF91DF9108956F927F928F929F9254
S1131820AF92BF92CF92DF92EF92FF920F931F93EA
S1131830CF93DF934B015C01C4E4D4E060E070E03B
S1131840762EFB0193E0EE0FFF1F9A95E1F7E60F6A
S1131850F71F84E4C82E84E0D82ECE0EDF1ED601F6
S113186018966C90189761FE36C0E880F9800A815A
S11318701B818C819D81AE81BF81A50194012E19AC
S11318803F09400B510B281739074A075B0718F12A
S113189060FE06C0E45BFB4F80818D7F808309C0BE
S11318A08E0D9F1DA01FB11FF60180839183A2831B
S11318B0B383772021F0F72DF230A1F408C0809192
S11318C03F0290914002009769F083E001C080E0FC
S11318D00E944B0307C06F5F7F4F299664307105E8
S11318E009F0AECF85E00E944B03DF91CF911F91A9
S11318F00F91FF90EF90DF90CF90BF90AF909F90AB
S11319008F907F906F900895CF92DF92EF92FF9225
S11319100F931F931FB7F8942091B3009091B200D6
S113192087B3291711F081FF02C01FBF70C08091D7
S113193000038823D9F10E941605209138023091C2
S1131940390240913A0250913B02C090ED14D0907C
S1131950EE14E090EF14F090F014621B730B840B00
S1131960950B6C157D058E059F0528F010920003DC
S113197096EE01E01FC0D701C601820F931FA41F7A
S1131980B51F20914202309143024091440250918C
S11319904502821B930BA40BB50B873E9105A10551
S11319A0B10520F4982F823020F402C096EE01C0D5
S11319B092E000E0E92FE1508091B60083FDFCCF76
S11319C08091B200E81709F4E92F20914202309186
S11319D043024091440250914502CA01B9016F5F2C
S11319E07F4F8F4F9F4F6E0F711D811D911D621789
S11319F073078407950710F4E22FE0958E2F0E9459
S1131A0000031FBF002319F084E00E944B031F91C1
S1131A100F91FF90EF90DF90CF9008950F93209354
S1131A20E3143093E4144093E5145093E6140093C4
S1131A305D02EFB7F894F1E0F0930003609338028D
S1131A407093390280933A0290933B022093ED14F1
S1131A503093EE144093EF145093F014EFBF0E94B0
S1131A60840C0F9108951F93182F81E00E94240283
S1131A701EBD0DB407FEFDCF8EB51F910895E4EF92
S1131A80F0E06927660FF11DE60FF11DC895382FA8
S1131A90202D3196C8953025C90108950F931F93C1
S1131AA0082F162F8091FB02813079F0813038F0B5
S1131AB0823009F441C0833009F002C14EC00023D2
S1131AC009F417C10E94070311C1002309F011C1D1
S1131AD080913D0490913E040E943F0D90933E04FA
S1131AE080933D0482E08093FB021093E21414344B
S1131AF009F0E6C080911702982F917080FF03C00F
S1131B008695869501C08695817009F0D9C080912B
S1131B101702992311F0846001C082608093170238
S1131B2080911702877E88608093170210921802B2
S1131B308FEF80930B02DDC0002309F0C1C06093D6
S1131B40FF0280913D0490913E040E943F0D9093CA
S1131B503E0480933D0483E0CAC08091D7048F3F44
S1131B6009F4AEC0002309F447C0823008F4A8C0C9
S1131B70E091CE14EE2311F0E15001C0E2E0AE2F6B
S1131B80B0E0A253BB4E12968C911297382F20E0EE
S1131B90EE2311F0E15001C0E2E0F0E0E253FB4E2D
S1131BA0428150E0422B532B20913D0430913E045E
S1131BB04217530709F084C080E00E947603209105
S1131BC0FF02E0912D0430912E048E2F8F5F86301A
S1131BD010F4982F01C090E0931709F471C0F0E05D
S1131BE0E35DFB4F228380932D04863010F0109226
S1131BF02D040E94850564C0823008F44DC0E09134
S1131C00CF14F0E0E253FB4E228130911702932F60
S1131C109695969596959370892F90E081309105CD
S1131C2021F08230910501F50FC0832F877E8061FA
S1131C3080931702222311F080E001C085E0809395
S1131C40180220930B0210C080911802833360F4B1
S1131C50E0911002F0911102E80FF11D20838091B0
S1131C6018028F5F8093180280913D0490913E0486
S1131C702091CF14E22FF0E0E253FB4E62812F5FFC
S1131C802093CF14233010F01092CF140E943F0DF4
S1131C9090933E0480933D048091CE14E82FF0E0AD
S1131CA0E253FB4E12838F5F8093CE14833010F087
S1131CB01092CE148091D7048F5F8093D70419C0FB
S1131CC00E940703809127028D7F8093270281E081
S1131CD00E94760380911602882331F084E0809379
S1131CE0FB020E94670505C0002319F081E0809380
S1131CF0FB021F910F910895882311F4109228027A
S1131D000895CF92DF92FF920F931F93CF93DF93A7
S1131D10EC01FB014A3019F04D3091F40FC0DB01A6
S1131D20149688A983FF03C08AA990E002C08FEFAC
S1131D309FEF11968C931197948302C013821282A1
S1131D40FFB6F89480910803882351F580913702F7
S1131D5090E0FC01EE0FFF1FEB59FD4F0081118154
S1131D60D183C083019668E470E00E94191C8093BB
S1131D7037029091D304981719F481E080930803F3
S1131D808091EB14882309F041C082E047E050E0E1
S1131D9060E070E00E94390581E08093EB1436C066
S1131DA09FB7F89482B122E0822782B99FBF0E9434
S1131DB0F70280912A02882381F480912B028823E0
S1131DC061F48091F314813041F081E080932B021F
S1131DD00E94B90B85E080932A020E94CB0B8FB737
S1131DE0F8949091FB02992319F494E09093FB02E8
S1131DF08FBF8FB7F8949091D204992319F49AE085
S1131E009093D2048FBF0E9467058E01FFBEC80164
S1131E10DF91CF911F910F91FF90DF90CF900895A4
S1131E208091AD039091AE03009739F521E030E045
S1131E303093D7142093D6148CE592E09093AE039C
S1131E408093AD031092FD021092FC0281E0809316
S1131E50FE028091C00080648093C0008091C10024
S1131E6080648093C10080915C023093FD022093D2
S1131E70FC020E94400380E0089585E0089580916B
S1131E8027028E7F809327028EE780935C020E9454
S1131E90100F0895982F9D57923050F49091270277
S1131EA091609093270290E298279093D6048DE74F
S1131EB080935C020E94100F08951F93CF93DF93C9
S1131EC0182FE82FF0E0EE0FFF1FE95CFB4F1182A3
S1131ED0108210921202C0913704D09138042097D6
S1131EE021F08091EC1480FF03C081E08093120202
S1131EF080911202882379F4CE010E94B501BC01BD
S1131F0028812D508B85AE010E948204882319F00C
S1131F1083E10E944B03812F0E947C0EDF91CF91BD
S1131F201F9108950F931F93DF93CF930F92CDB713
S1131F30DEB78C0180911202882361F4809137040A
S1131F40909138048017910729F480E069830E94F6
S1131F505D0F6981662319F00E94E20120C00E948E
S1131F60DA013FB7F89420910715E22FF0E0EE0F65
S1131F70FF1FE35EFB4F808191810817190771F4FD
S1131F80822F8F5F80930715883010F01092071509
S1131F9080913602882311F0109236023FBF81E00F
S1131FA00E944B030F90CF91DF911F910F910895E1
S1131FB00F931F93DF93CF930F92CDB7DEB7682FA4
S1131FC000913F02109140021092400210923F0291
S1131FD080914C048D7F80934C042091F7023091C2
S1131FE0F802F80131A720A782858F3339F4698379
S1131FF00E944A04C80169810E94920F0F90CF91F8
S1132000DF911F910F9108955F926F927F928F924B
S11320109F92AF92BF92CF92DF92EF92FF920F9373
S11320201F93DF93CF9300D00F92CDB7DEB7E82F85
S1132030F0E0E431F10508F0D1C4EA59FF4FEE0FA6
S1132040FF1F0590F491E02D09948FB7F894209127
S113205037029091D304291739F4909108039923F6
S113206019F41092EB147BC08FBFE091D304F0E01D
S1132070EE0FFF1FEB59FD4FC080D180D6010C91AC
S1132080102F1D50109341041B96EC90C6010E9422
S1132090B501682EA92EC60108960E94AC01F6016E
S11320A080879783E091D304F0E0EE0FFF1FEB5994
S11320B0FD4F0190F081E02D1D3108F0E8C3DF01F0
S11320C0159611966C921197A5821696EC92169716
S11320D014961C93149780911B0290911C020097F4
S11320E009F0D5C32FB7F89485E080931E021092AF
S11320F01F02F0931A02E093190282E090E0909399
S11321001C0280931B0210922102109220020150A3
S113211000931D022FBF9FB7F8948091B1038823C9
S113212031F481E08093B1031092B20301C080E0E6
S11321309FBF882309F042C310921C0210921B0215
S1132140A6C38FB7F89420912C02909107152917F4
S113215041F490913602992321F4109235028FBFF5
S11321603DC48FBFE0910715F0E0EE0FFF1FE35E63
S1132170FB4F40815181FA013596618170E0DA01AB
S113218015969C9180E0682B792B868124810E948E
S11321908204882309F422C40E94E20181E05CC322
S11321A08FB7F894909162029093070292E0909313
S11321B014028FBF80910702882309F00FC4809115
S11321C06302909164020E94D303882309F406C435
S11321D08B830E944A0480916302909164026B8114
S11321E00E94920FFBC380913F0290914002FC0138
S11321F020A531A52115310511F00E94C601809159
S11322003F02909140020E94BF03882309F4E6C371
S11322102EC180915D02882311F5EFB7F894609187
S1132220ED147091EE148091EF149091F0142091BC
S113223038023091390240913A0250913B02620FC8
S1132240731F841F951FEFBF2091E3143091E41492
S11322504091E5145091E61400E00E940E0D0E9496
S1132260160550C00E9416059B01AC018FB7F89467
S1132270109200038FBFE4E4F4E060E070E06624B1
S11322800FEFA02E0FEFB02E0FEFC02E0FE7D02EC2
S1132290DB0113E0AA0FBB1F1A95E1F7A60FB71FC6
S11322A0AC5BBB4F18968C91189781FF1BC0808143
S11322B09181A281B38179018A01E81AF90A0A0B92
S11322C01B0B84819581A681B7818E199F09A00B70
S11322D0B10B8A159B05AC05BD0524F45C016D01A9
S11322E0662463946F5F7F4F39966430710581F67D
S11322F0662009F473C31A141B041C041D042CF077
S1132300CA01B9010E940C0C69C3CA01B901A60132
S1132310950101E00E940E0D61C380912A02109282
S11323202A02843019F56FB7F894EDE1F4E080E007
S113233090E043E350E0849F9001859F300D949F8B
S1132340300D112423523B4F219331930196883051
S1132350910589F71092071510922C0210923502FC
S1132360109236026FBF1092280238C3853019F4D8
S11323700E94DD0B33C3863009F430C380932A02F4
S11323802DC39FB7F89480915B029FBF90912A025E
S1132390923011F4882339F09091E8039F5F909371
S11323A0E803963020F093E090932A022EC00E9416
S11323B0F7028091D4049091D5042091F71422233C
S11323C0B1F42091A803222391F490930203809303
S11323D0010381E08093F71486EB93E20E9449079E
S11323E00E94440782E080932A0280E00AC0809120
S11323F0E803853011F483E001C081E080932A0270
S113240085E089830E94CB0B898190912A029330C5
S113241009F0E4C210922A02E091D404F091D504A8
S11324202091F7023091F8022F5F3F4F3093F8026A
S11324302093F70290A990FF02C080E01AC0E091B7
S11324403F02F0914002DF01989640A551A5241760
S1132450350778F412964D915C9113974115510507
S113246031F060E070E080E00E943905B7C283E09B
S1132470F3C10E94D80FB2C28FB7F894909142046E
S1132480992309F46CCEE0913E02F0E0EE0FFF1FB9
S1132490E15DFD4F008111818FBFD8011A968C91A7
S11324A01A978F3399F41B964C91B801645F7F4F50
S11324B049836B837A835FB7F8945FBF49816B81EB
S11324C07A81C8010E94810E8C0103C08FB7F894F1
S11324D08FBF9FB7F89480913E02E82FF0E0EE0F93
S11324E0FF1FE15DFD4F118300838F5F80933E02E8
S11324F0833010F010923E02809142048150809308
S113250042049FBFB9CF5FB6F894A0900403B09083
S11325100503C0900603D09007039501A60160E06F
S113252070E080E090E0EEE4AE2E03E8B02ECC2420
S1132530DD24EE24FF2400E010E00E94CA1A3901D1
S11325404A0100E20E94941B59016A01D401C301AB
S1132550B695A795979587958A0D9B1DAC1DBD1DB6
S1132560B7FF04C0BF770196A11DB11D809304037A
S113257090930503A0930603B09307035FBE2FB7A0
S1132580F8949093600280935F02FFC18FB7F89430
S11325901092CF041092CE041092F2141092F114FF
S11325A010922E0210922D021092360410923504CD
S11325B0D6CD8FB7F8949091AC0390930A0292E031
S11325C0909315028FBF80910A02882309F006C2F6
S11325D00E94A4010E94A2018091F3148823B1F502
S11325E08EEF91E00E941D0216980E94A00186E0E1
S11325F090E00E941D020E949E0183E060E00E9420
S1132600050282E068E00E9405028EEF91E00E94DC
S11326101D028EE06DE40E94050289E067EC0E94D1
S1132620050285E060E80E9405021092E9038BE050
S11326308093610288E06BE60E9405020E94F50126
S113264081E08093F3140E940604C8C10E94B90B70
S1132650C5C13FB7F8941092F6149091D20481E06A
S1132660983009F080E021E0993009F020E08823D7
S113267011F4222351F01092D204E0914304F0E0CB
S1132680EE0FFF1FE155FC4F10823FBF882311F46A
S1132690222309F19091EA149F5F9093EA14909198
S11326A0AB03933499F49FB7F89480912E0420914E
S11326B02D04281739F08F5F80932E04863010F094
S11326C010922E049FBFEE2400E00AC001E0082708
S11326D0EE24E39405C0992309F04EC000E0EE24F3
S11326E09FB7F894809116029FBF882339F08FB763
S11326F0F8949AE09093D2048FBF32C08FB7F894C5
S1132700A090AF031091B1038FBF0E94EA01882308
S1132710E1F4AA20D1F41FB7F89482E08093AF03C8
S11327200E94EA01882339F4E0912E04F0E0E35D8D
S1132730FB4F828101C080E08093B0031FBF83E41C
S11327408093AB031092430409C01150123040F43B
S113275085E48093AB0381E08093430411E001C0DE
S113276010E0EE2051F08FB7F89400931F028FBF52
S113277080E10E944B0301C010E08091D2048A30B2
S113278019F40E9467052AC1112309F427C18FB7E0
S1132790F8941092FF141092FE141092A90391E081
S11327A09093D2048FBF0E943F0F882309F416C16F
S11327B08FB7F89499E09093D2048FBF0E94850557
S11327C00DC18091C1008F7B8093C1008091C100B5
S11327D08F778093C1001092D1041092FE028091F1
S11327E0C10088608093C1008091C10080618093A2
S11327F0C1008091C10080688093C1006FB7F894D4
S1132800E5E6F2E080E090E043E350E0849F90014D
S1132810859F300D949F300D11242A58394F2193F0
S1132820319301968834910589F71092D30410925C
S113283037021092EB14109208036FBFCFC08FE0E1
S11328400BC08091C100877F8093C1008091C1003B
S11328508F7E8093C1008DE00E944B03BFC0109215
S11328601C0210921B029FB7F89480911F029FBF15
S113287090912002911183E00091190210911A02A3
S113288090912102992309F0A9C0882319F00E948C
S1132890E20120C00E94DA013FB7F8942091D304EA
S11328A0E22FF0E0EE0FFF1FEB59FD4F8081918185
S11328B00817190771F4822F8F5F8093D30488342B
S11328C010F01092D30480910803882311F0109221
S11328D008033FBF82E047E050E060E070E0C4CD11
S11328E03FB7F8942091230290912402809125020D
S11328F0109141023FBF222399F5AFB6F89420917D
S11329003602222341F520912C02E22FF0E0EE0F53
S1132910FF1FE35EFB4FE080018190838183822F60
S11329208F5F80932C02883010F010922C029091CB
S11329302C0280910715981719F481E080933602D0
S113294080913502882349F481E00E944B0381E0A1
S11329508093350202C0E92E082FAFBE9E2D802F32
S11329602FB7F894E12FF0E0EE0FFF1FE45FFD4F67
S11329709083818380911702112311F08B7F01C012
S11329808D7F80931702109222022FBF27C080915F
S1132990EC14882319F157E3E52E54E0F52E00E0FA
S11329A011E09091EC14812F892359F0F7011182E1
S11329B01082812F809589238093EC14802F0E94AC
S11329C07C0E0F5F82E090E0E80EF91E083031F0D3
S11329D0110FE7CF809112020E945D0F0F900F90AC
S11329E00F90CF91DF911F910F91FF90EF90DF90A7
S11329F0CF90BF90AF909F908F907F906F905F909B
S1132A0008950E9418038F3F21F00E94041081E072
S1132A10089580E008958FB7F89408958FBF0895BE
S1132A20FF920F931F93FFB6F89487E492E06FEF41
S1132A3070E044E150E00E94A41C8FEF8093E714FF
S1132A408093FD1456985E9854985C980E94A60151
S1132A500E94A4010E94A201279A0E94A0010E9A3A
S1132A600E949E0183EB93E090933D0280933C028D
S1132A70109209038AE58093F60281E08093810035
S1132A8080E28093B60083E08093B100809184005B
S1132A90909185004AE701C0C901209184003091DA
S1132AA085002817390708F441504423A9F7809179
S1132AB0B2009091B2009817E1F320918400309114
S1132AC085008091B2009091B2009817E1F3809153
S1132AD08400909185004096821B930B45E0969567
S1132AE087954A95E1F79093E9148093E81410923E
S1132AF0B1008091B1008093810080918100809326
S1132B00B6001092B20010928500109284008FEFEC
S1132B1087BB87B386BB8091B6008571E1F70A9ABB
S1132B20099A089A129A119A109A18B88FEF87B9CD
S1132B300C98149810929500109294008091710052
S1132B4081608093710080919100887F826080937E
S1132B509100109285001092840080916F00816032
S1132B6080936F0080918100887F826080938100D0
S1132B7081E085BF0E9401158823E1F702E016E099
S1132B806091E8147091E91480E090E03CE0660FF5
S1132B90771F881F991F3A95D1F720E031EE40E066
S1132BA050E00E942C1C215030402093C4003093EC
S1132BB0C5000093C0001093C2001092C10020937E
S1132BC0CC003093CD000093C8001093CA0010923B
S1132BD0C90084E490E09093D5148093D4141092A7
S1132BE0AF031092B1031092D2041092A903109271
S1132BF0AB031092EA141092FF141092FE14109278
S1132C00F614109243040E94070310922E041092AB
S1132C102D048FEF8093AA030E94B80580910002CF
S1132C20909101020196A0E0B0E080930403909398
S1132C300503A0930603B09307038DE093E09093FC
S1132C40300280932F02C396909332028093310214
S1132C5083E793E090933402809333028091B6002B
S1132C6080628093B6008091B60081FDFCCF82E043
S1132C708093B0008091B60080FDFCCF83E0809308
S1132C80B10086EE0E940003809170008260809300
S1132C9070000E94840C8FEF9FEF9093D91480935F
S1132CA0D8149093DB148093DA149093DD148093FA
S1132CB0DC149093DF148093DE149093E1148093DA
S1132CC0E014809100028295807F80930A038FEF45
S1132CD08093F5020E9401158823E1F7FFBE7894E2
S1132CE0E5E6F2E080E090E043E350E0849F900169
S1132CF0859F300D949F300D11242A58394F21930C
S1132D00319301968834910589F71092D304109277
S1132D1037021092EB1481E080930803EDE1F4E0B4
S1132D2080E090E043E350E0849F9001859F300D64
S1132D30949F300D112423523B4F219331930196DC
S1132D408830910589F71092071510922C02109281
S1132D50350211E0109336020E94DD0B8DE00E94D3
S1132D604B03109328020E94DD0B1FB7F89452C046
S1132D7080916E008670E9F480916F008E72C9F4C0
S1132D80809171008E72A9F40CB407FC12C080917A
S1132D90C100807E71F48091C900807E51F48091DD
S1132DA0BC0082FD06C080917A0087FF04C021E048
S1132DB003C020E001C025E08091700090E08370A2
S1132DC09070009781F08091B6008A71E1F780914C
S1132DD0B3009091B200891B8C3038F08091B2001E
S1132DE0853F28F002C0E5E003C0E2E001C0E3E073
S1132DF083B72E1708F4E22FF0E0EC50FD4FE49176
S1132E00807F81608E2B83BF78948895F89483B7F4
S1132E108E7F83BF0E9418038F3F09F4A9CF1FBF81
S1132E200E940410A2CF1F920F920FB60F920BB6FE
S1132E300F9211242F933F934F935F936F937F933C
S1132E408F939F93AF93BF93EF93FF930E942E03AF
S1132E502091B30030E02F5F3F4F40E050E080917D
S1132E60420290914302A0914402B0914502820F24
S1132E70931FA41FB51F8093420290934302A09313
S1132E804402B093450278940E94840CFF91EF9120
S1132E90BF91AF919F918F917F916F915F914F916E
S1132EA03F912F910F900BBE0F900FBE0F901F906C
S1132EB018951F920F920FB60F920BB60F92112412
S1132EC02F933F934F935F936F937F938F939F932E
S1132ED0AF93BF93EF93FF930E942E03FF91EF9163
S1132EE0BF91AF919F918F917F916F915F914F911E
S1132EF03F912F910F900BBE0F900FBE0F901F901C
S1132F0018951F920F920FB60F920BB60F921124C1
S1132F10CF92DF92EF92FF920F931F932F933F93E1
S1132F204F935F936F937F938F939F93AF93BF93CD
S1132F30CF93DF93EF93FF932EB58091CE049091BE
S1132F40CF04009739F0E0913504F0913604E80F8E
S1132F50F91F208380913504909136040196909353
S1132F6036048093350480E00E943703C091350411
S1132F70D091360420912D0230912E02C217D3072E
S1132F80E0F50091F1141091F214E090CE04F09069
S1132F90CF04CE010A9628173907B0F4C90114C02A
S1132FA00115110529F0F801EC0FFD1F808101C006
S1132FB080E00E94330DE114F10421F0F701EC0FDD
S1132FC0FD1F8083219604C06C010894C108D108B8
S1132FD0CC15DD0528F381E00E94370301151105A6
S1132FE031F0F801EC0FFD1F80818EBD01C01EBCC5
S1132FF0D0933604C093350411C01092CF041092BC
S1133000CE041092F2141092F11410922E02109227
S11330102D0210923604109235048EB5FF91EF9173
S1133020DF91CF91BF91AF919F918F917F916F91DC
S11330305F914F913F912F911F910F91FF90EF90CE
S1133040DF90CF900F900BBE0F900FBE0F901F908C
S1133050189578941F920F920FB60F920BB60F9299
S113306011242F933F934F935F936F937F938F9389
S11330709F93AF93BF93EF93FF930E94AB02789417
S11330808FB7F8949091A803913019F492E090933B
S1133090A8038FBF0E94B90BFF91EF91BF91AF912D
S11330A09F918F917F916F915F914F913F912F915C
S11330B00F900BBE0F900FBE0F901F901895789431
S11330C01F920F920FB60F9211240F900FBE0F9004
S11330D01F90189578941F920F920FB60F92112497
S11330E00F900FBE0F901F90189578941F920F9217
S11330F00FB60F920BB60F9211242F933F934F9359
S11331005F936F937F938F939F93AF93BF93EF934B
S1133110FF93809184009091850080918600909126
S113312087002FB7F8949093A7038093A60381E0B8
S11331308093D3142FBF0E94B90BFF91EF91BF91DD
S1133140AF919F918F917F916F915F914F913F913B
S11331502F910F900BBE0F900FBE0F901F901895DC
S113316078941F920F920FB60F9211242F938F937E
S11331709F93AF93BF932FB7F894809139049091A4
S11331803A04A0913B04B0913C040196A11DB11DE9
S11331908093390490933A04A0933B04B0933C0485
S11331A02FBFBF91AF919F918F912F910F900FBE21
S11331B00F901F9018951F920F920FB60F920BB697
S11331C00F9211242F933F934F935F936F937F93A9
S11331D08F939F93AF93BF93EF93FF938091C0001E
S11331E087FF44C06091C60020913F0430914004A1
S11331F02115310521F18091F4149091F514280FD3
S1133200391FF901608301969093F5148093F414A7
S113321020910015309101158217930738F110920F
S1133220400410923F048091D1048330F9F08091DE
S1133230C1008F778093C1001092D10417C06E37FC
S113324019F481E060E010C0809127026D3721F409
S11332508260809327020AC081FF05C08D7F80931E
S1133260270280E2682780E00E944E0DFF91EF91D3
S1133270BF91AF919F918F917F916F915F914F918A
S11332803F912F910F900BBE0F900FBE0F901F9088
S1133290189578941F920F920FB60F920BB60F9257
S11332A01124FF920F931F932F933F934F935F9398
S11332B06F937F938F939F93AF93BF93CF93DF933A
S11332C0EF93FF932091FC023091FD028091D6147C
S11332D09091D7142817390780F4E091AD03F09149
S11332E0AE03E20FF31F80812F5F3F4F3093FD0247
S11332F02093FC020E944003C7C01092AE031092B8
S1133300AD031092FE028091C1008F7B8093C100B7
S11333108091270280FF0AC08E7F809327028091CC
S1133320D60480935C020E94100FAEC08091D20438
S1133330843009F48BC0853040F4823011F183303D
S1133340A8F5813009F09BC00DC0863009F48CC00B
S1133350863008F482C0873009F48DC0883009F0C3
S11333608EC090C08091AB030E944A0F082F83E067
S11333708093D2048091FE149091FF146091AB036A
S11333800EC08091EA140E944A0F082F83E08093B4
S1133390D2048091FE149091FF146091EA140E946B
S11333A03F0D9093FF148093FE1467C01FB7F894E9
S11333B0E0914304F0E0EE0FFF1FE055FC4F8081E5
S11333C00E944A0F082FF0904304CF2DD0E0FE0155
S11333D0EE0FFF1FE055FC4F8091FE149091FF14F7
S11333E060810E943F0D9093FF148093FE1480919E
S11333F0A9038F5F8093A9039F2D913011F520912C
S11334001E02E0911902F0911A02E20FF11D90815F
S11334102F5F20931E0230911D02321720F492E098
S11334209093B10390E0CC0FDD1FFE01E155FC4FFA
S11334302081223031F08F3F21F0C055DC4F98833A
S113344003C084E08093D2041FBF17C08091FE1490
S11334500E944A0F082F85E00BC08091FF140E9440
S11334604A0F082F86E004C00E943F0F082F87E010
S11334708093D20402C088E003C0002329F089E0CD
S11334808093D2040E948505FF91EF91DF91CF9143
S1133490BF91AF919F918F917F916F915F914F9168
S11334A03F912F911F910F91FF900F900BBE0F90A2
S11334B00FBE0F901F9018951F920F920FB60F9288
S11334C011248F938091C80087FF02C08091CE00A1
S11334D08F910F900FBE0F901F90189578941F92A4
S11334E00F920FB60F9211240F900FBE0F901F90E2
S11334F0189578941F920F920FB60F9211240F9083
S11335000FBE0F901F90189578941F920F920FB6CC
S11335100F9211240F900FBE0F901F90189578945E
S11335201F920F920FB60F9211240F900FBE0F909F
S11335301F90189578941F920F920FB60F92112432
S11335408F939F9380919400909195009F918F9178
S11335500F900FBE0F901F90189578941F920F92A2
S11335600FB60F9211242F938F939F932FB7F89434
S113357080910B0390910C03019690930C0380931C
S11335800B032FBF9F918F912F910F900FBE0F9020
S11335901F901895ACE2B0E0E0EDFAE10C946D1CDC
S11335A029833A834B835C836D837E838F839887DF
S11335B0A986BA86CB86DC86ED86FE860F87188BB5
S11335C069807A808B809C8069A27AA28BA29CA25B
S11335D0840173018FEF9FEFA0E0B0E0E822F922AD
S11335E00A231B2314014424552469847A848B847C
S11335F09C846DA27EA28FA298A664015301A82286
S1133600B922CA22DB22340188249924C601B501D7
S1133610A80197010E944E1C69A77AA78BA79CA7B3
S1133620C401B3010E944E1C7B018C01C601B5018B
S1133630A20191010E944E1C5B016C01C401B30103
S11336400E944E1C9B01AC01EA0CFB1C0C1D1D1DB1
S113365069A47AA48BA49CA4C401AA27BB27E80E5E
S1133660F91E0A1F1B1FEA14FB040C051D0520F498
S1133670205030404F4F5F4FC801AA27BB27820F0D
S1133680931FA41FB51F8D8F9E8FAF8FB8A3870183
S1133690FF24EE2429A53AA54BA55CA540705070E3
S11336A0E20EF31E041F151FE98EFA8E0B8F1C8F7A
S11336B0DE2CAA8CCB8C6C8C8D8B8E8D8E8B8F8D0F
S11336C08F8B88A1888F2D853E854F85588969A168
S11336D07AA18BA19CA10E944E1C7B018C012D819F
S11336E03E814F8158856DA17EA18FA198A50E942E
S11336F04E1CE60EF71E081F191F6D897E898F89DF
S1133700988D6E0D7F1D801F911F6D8B7E8B8F8B0F
S1133710988F7E892D2D3A2D4C2D562D8F89988D7D
S1133720AC96E2E10C94891C0F93DF93CF93CDB751
S1133730DEB760970FB6F894DEBF0FBECDBF00238F
S113374009F459C029833A834B835C836D837E8358
S11337508F839887E0E2E01B2D813E814F8158855D
S11337601E16BCF01D861E861F86188A8E2F99276A
S113377087FD9095909581959F4F04C056954795E8
S1133780379527958A95D2F729873A874B875C879F
S11337902AC0CA01B901002E04C096958795779571
S11337A067950A94D2F76D877E878F87988BDA01A5
S11337B0C90104C0880F991FAA1FBB1FEA95D2F73D
S11337C029813A814B815C8104C056954795379590
S11337D027950A95D2F7822B932BA42BB52B898797
S11337E09A87AB87BC8729853A854B855C856D852F
S11337F07E858F85988960960FB6F894DEBF0FBEDC
S1133800CDBFCF91DF910F910895AA1BBB1B51E14E
S113381007C0AA1FBB1FA617B70710F0A61BB70B3C
S1133820881F991F5A95A9F780959095BC01CD01E1
S1133830089597FB092E07260AD077FD04D0E5DF0B
S113384006D000201AF4709561957F4F0895F6F71D
S1133850909581959F4F0895A1E21A2EAA1BBB1B38
S1133860FD010DC0AA1FBB1FEE1FFF1FA217B30748
S1133870E407F50720F0A21BB30BE40BF50B661F5E
S1133880771F881F991F1A9469F760957095809522
S113389090959B01AC01BD01CF010895629FD001B9
S11338A0739FF001829FE00DF11D649FE00DF11DF7
S11338B0929FF00D839FF00D749FF00D659FF00DA6
S11338C09927729FB00DE11DF91F639FB00DE11D93
S11338D0F91FBD01CF01112408952F923F924F92F9
S11338E05F926F927F928F929F92AF92BF92CF928C
S11338F0DF92EF92FF920F931F93CF93DF93CDB795
S1133900DEB7CA1BDB0B0FB6F894DEBF0FBECDBF0C
S113391009942A88398848885F846E847D848C84DD
S11339209B84AA84B984C884DF80EE80FD800C81E6
S11339301B81AA81B981CE0FD11D0FB6F894DEBFC9
S11339400FBECDBFED010895DC0101C06D93415060
S10D39505040E0F70895F894FFCF0B
S113395A0100010022FFFFFFFFFFFFFF68049B0431
S107396A68040100E8
S9030000FC
